:020000040800F2
:1000000010350120F9020008111600089F1500089C
:100010000D160008BF140008731B00080000000044
:100020000000000000000000000000004102000885
:10003000C31400080000000095020008DD18000845
:100040001303000813030008130300081303000838
:100050001303000813030008130300081303000828
:100060001303000813030008130300081303000818
:100070001303000813030008130300081303000808
:1000800013030008130300081303000813030008F8
:1000900013030008130300081303000813030008E8
:1000A00013030008130300081303000813030008D8
:1000B00013030008130300081303000813030008C8
:1000C00013030008130300081303000813030008B8
:1000D0001303000855190008130300081303000850
:1000E0001303000813030008130300081303000898
:1000F0001303000813030008130300081303000888
:100100001303000813030008130300081303000877
:100110001303000813030008130300081303000867
:100120001303000813030008130300081303000857
:100130001303000813030008130300081303000847
:100140001303000813030008130300081303000837
:100150001303000813030008130300081303000827
:100160001303000813030008130300081303000817
:100170001303000813030008130300081303000807
:10018000130300081303000800F002F800F049F818
:100190000AA090E8000C82448344AAF10107DA45E2
:1001A00001D100F03EF8AFF2090EBAE80F0013F0EB
:1001B000010F18BFFB1A43F001031847203C000051
:1001C000403C0000103A24BF78C878C1FAD85207E2
:1001D00024BF30C830C144BF04680C6070470000C1
:1001E0000023002400250026103A28BF78C1FBD840
:1001F000520728BF30C148BF0B607047662903F023
:10020000A185002070471FB503F097FD00F0EEFBBD
:1002100004000020002103F003FDE0601FBD10B5C5
:1002200010BD00F023FD1146FFF7EDFF01F02EFD9C
:1002300000F041FD03B4FFF7F2FF03BC01F0BAFC8C
:100240002A4B19680868B0E8F04F80F30988BFF3BB
:100250006F8F4FF0000080F311887047000000009E
:1002600006480068006880F3088862B661B6BFF38C
:100270004F8FBFF36F8F00DF00BF00BF08ED00E0BE
:10028000DFF80C00016841F470010160704700BFA5
:1002900088ED00E0EFF30980BFF36F8F134B1A680E
:1002A0001EF0100F08BF20ED108A20E9F04F1060FB
:1002B00008B44FF0500080F31188BFF34F8FBFF3A5
:1002C0006F8F02F035FE4FF0000080F3118808BCFC
:1002D00019680868B0E8F04F1EF0100F08BFB0ECC6
:1002E000108A80F30988BFF36F8F704730000020B9
:1002F000EFF3058070470000094880470948004730
:10030000FEE7FEE7FEE7FEE7FEE7FEE7FEE7FEE7C5
:10031000FEE7FEE704480549054A064B7047000022
:10032000ED18000889010008102F01201035012068
:100330001031012010310120704700000FB4044932
:1003400010B503AA029800F0EBFA10BC5DF814FB9C
:10035000280000202DE9F0474FF0000A89460446A6
:10036000C0F820A02046E1688847002876D02528DC
:1003700006D0D4E901219047206A401C2062F1E7B1
:10038000E168204600258847C4F81CA006460027DF
:10039000C4F818A02A2E09D0304601F004FC38B366
:1003A00004EB8708303EC8F8186019E059F8041BC0
:1003B000204604EB87029161E1688847012F0646D9
:1003C00018D1E069002820DA25F020051DE0D8F8D2
:1003D000180000EB800006EB40003038C8F8180029
:1003E0002046E1688847064601F0DDFB0028EED193
:1003F000012F0AD02E2E08D12046E16888477F1CA5
:100400000646022F45F02005C4DBA069002803DA68
:10041000404245F00105A061E80701D025F0100534
:10042000B6B1A6F14100192802D8203645F400657E
:100430004A463146204625604D46FFF7DFFE58B15B
:10044000012806D0ED1D25F0070000F1080989E715
:1004500004E005F1040985E730468AE7206ABDE833
:10046000F087032A40F2308010F0030C00F0158072
:1004700011F8013BBCF1020F624498BF11F801CBA7
:1004800000F8013B38BF11F8013BA2F1040298BF0C
:1004900000F801CB38BF00F8013B11F0030300F076
:1004A0005182083AC0F0088051F8043B083A51F8EC
:1004B00004CBA0E80810F5E7121D5CBF51F8043B1F
:1004C00040F8043BAFF30080D20724BF11F8013B92
:1004D00011F801CB48BF11F8012B24BF00F8013BF4
:1004E00000F801CB48BF00F8012B704702F0FF0372
:1004F00043EA032242EA024200F058BA70477047CA
:100500007047704770472DE9FF4F0C461E464FF06D
:10051000FF378BB0D2E90001DDF860800A908A468F
:10052000C1F30A5505B93D46002108464FF00000C9
:10053000BAF1000F00F4400005DA00EB80004FF440
:10054000400101EA50004FEA9059B9F1010F00DD76
:10055000B9460A9850EA4A000ED044F61050A5F267
:10056000FF3545432F14B8F1000F1ED07542291EE8
:100570001EDDC9F100021CE0B8F1010F4FF00000D0
:1005800001D0302103E0F24305E02154401CB04289
:10059000FBDB30460022002121540B99C1F8088072
:1005A000C1E900200FB0BDE8F08FBD1B6D1CDEE778
:1005B0004A4600DA694206A800F0BAFA06AB93E8A8
:1005C000070003AB83E8070050460A9900F0BCFB24
:1005D0008DE80700A0F500501F3800900398002D0B
:1005E00009DD42F21F014A46084403A90390684608
:1005F00000F01BFE08E0A0F500504A461F3803A992
:100600000390684600F025FE8DE807000004000C0A
:1006100003D04FF0FF30410800E01046B8F1000F62
:1006200003D00022009215461EE0751E05D400F08E
:10063000E1F9303262556D1EF9D5B3460122084307
:1006400002D000227F1C04E02078302801D1002253
:100650007F1E002A099786D01DE0112D07DA00F0D1
:10066000C9F9303262556D1C50EA0102F5D10843D8
:1006700002D00098C8B10EE00021681E05E0235C9E
:10068000625C63542254401E491C8142F7DBAB4636
:10069000A81B401E0990002004F80B000B98099A33
:1006A000C0F80880C0E9002B7CE711264FF0000855
:1006B00059E72DE9F04F88460446D21D22F0070184
:1006C00091B0D1E90001CDE90A0101F054FA0246E6
:1006D0000B98C00F01D02D2007E02068810701D5BD
:1006E0002B2002E0202101EAC000032A099001D05A
:1006F000072A05DB03464146204600F0D9F90BE105
:100700002078800601D5E06900E00620B8F1650F89
:10071000814606D0B8F1660F18D0B8F1670F70D1D6
:1007200031E00020B9F1110F009001DB112301E04D
:1007300009F101030AAA01A90CA8FFF7E4FEDDE90B
:100740000C70002609F10105834647E001204B4665
:1007500000904FF000470AAA01A90CA8FFF7D3FEAA
:10076000DDE90DB00C995D46002610B909F10100D4
:100770000D18B9EB050003D4C0F1FF3609F10105EE
:10078000A5EB09002BE0B9F1010F01DA4FF00109E7
:100790000020B9F1110F0090484601DD112300E05F
:1007A00003460AAA01A90CA8FFF7ADFEDDE90C700B
:1007B0004D4600268346207800070AD4AB4500DA70
:1007C0005D4601A8012D04DD411911F8011C3029F5
:1007D00007D04F4502DA17F1040F04DA01208246F0
:1007E0000FE06D1EEEE7002F02DCED1B3E4403E040
:1007F000781CA84200DD7D1CB81B00F1010A4FF0F7
:1008000000472078000703D4AA4501DB4FF0FF3AE8
:100810000021B7F1004F0DF143088DF8431024D0AB
:1008200002202B23002F01DA7F422D230A21021EF2
:10083000A0F1010000DC5FB197FBF1FC97FBF1F246
:1008400001FB1C7C17460CF1300C08F801CDEEE7DB
:10085000A8F1010003702188090501D5452100E0B8
:100860006521A0F1010800F8011C09980FA9A1EB6E
:100870000807FF1D00B10120411901EBEA70A169D1
:100880003844081A401EA0612078C00602D42046D1
:10089000AFF30080099828B1D4E901219047206A7C
:1008A000401C20622078C00622D52046AFF300808D
:1008B0001EE0002E04DBB34502DD01A8805D00E0F0
:1008C0003020D4E901219047206A401C2062761C28
:1008D000AAF101005FEA000A0AD100F087F8C068B7
:1008E0000168405CD4E901219047206A401C2062E5
:1008F000281EA5F10105DCDC07E0D4E9012118F888
:10090000010B9047206A401C2062381EA7F10107A6
:10091000F3DC2046AFF30080032011B043E6000073
:10092000074B70B50D467B4400F0AFF804462846EF
:1009300000F06CF910B14FF0FF3070BD204670BD73
:100940004713000010B5203AC0F00B80B1E81850F2
:10095000203AA0E81850B1E81850A0E81850BFF4A9
:10096000F5AF5FEA027C24BFB1E81850A0E8185048
:1009700044BF18C918C0BDE810405FEA827C24BF9C
:1009800051F8043B40F8043B08BF7047D20728BF2A
:1009900031F8023B48BF11F8012B28BF20F8023B79
:1009A00048BF00F8012B70474FF000020429C0F047
:1009B000128010F0030C00F02F81CCF1040CBCF17C
:1009C000020F18BF00F8012BA8BF20F8022BA1EBE3
:1009D0000C0100F021B95FEAC17C24BF00F8012BB3
:1009E00000F8012B48BF00F8012B70470048704702
:1009F000CC2E012030B5B0F10A024FEA900E71F111
:100A000000034EEA817EB0EB0E0061EB91014FEAEC
:100A1000101E4EEA017E10EB0E0041EB11114FEA61
:100A2000102E4EEA016E10EB0E0041EB11214FEA41
:100A3000104E4EEA014E10EB0E0041EB11414018F2
:100A400041F100014FEAD00040EA41704FEAD10184
:100A500010EB80054FEA810444EA907444EB0104F2
:100A60006D1944EB0404521BA3414FF0000348BF2F
:100A70000A3200D530BD401C41F1000130BD0000FC
:100A800001694A1C02610878704700B58FB0CDE952
:100A900001310021059105497944CDE90310114642
:100AA0006846FFF757FC0FB000BD0000E5FFFFFFF1
:100AB0002DE9F0411F46044603260168072A01F488
:100AC000006004DB08B116A505E016A503E008B137
:100AD00015A500E015A521F010002060A069C01E3A
:100AE000A0610FB1401EA0612046AFF300804FB15E
:100AF000D4E9012138469047206A401C2062C01C7E
:100B0000206206E0206AFAE7D4E9012115F8010B1A
:100B10009047761EF8D22046AFF30080BDE8F08102
:100B20004E414E006E616E00494E4600696E660091
:100B30002DE9F047814616468AB0334878440DC8FF
:100B40008DE80D0030487844801C03AC0DC884E863
:100B50000D0041F69B300844372190FBF1F290FBE9
:100B6000F1F5A5F1800501FB12041B3C02D564429E
:100B7000012000E00020DFF890A080460027FA4422
:100B8000AAF1BE0A0DE0E00709D03246684607EB3D
:100B900047010AEB810100F05CFB8DE8070064105F
:100BA0007F1C002CEFD1184F7F44AC3F18E0E807C2
:100BB00014D007EB04100DF1180A90E80E008AE833
:100BC0000E00C068F04201D198190890324606A97B
:100BD00003A800F03EFB03AB83E807006D10641C24
:100BE000002DE4D132466946B8F1000F03A802D0C7
:100BF00000F01BFB01E000F02CFBC9E90001C9F883
:100C000008200AB0BDE8F08784320000007B00F0C5
:100C1000800070474FF0000200B513469446964698
:100C2000203922BFA0E80C50A0E80C50B1F12001FF
:100C3000BFF4F7AF090728BFA0E80C5048BF0CC0AD
:100C40005DF804EB890028BF40F8042B08BF70470B
:100C500048BF20F8022B11F0804F18BF00F8012B7D
:100C60007047000000487047AC2E01207546FFF722
:100C7000F9FFAE4605006946534620F00700854659
:100C800018B020B5FFF746FBBDE820404FF0000646
:100C90004FF000074FF000084FF0000B21F0070164
:100CA000AC46ACE8C009ACE8C009ACE8C009ACE8A7
:100CB000C0098D46704710B50446AFF3008020464A
:100CC000BDE81040FFF7B6BA4FF0013C50F8042BD6
:100CD00051F8043B9A4221D1A2EB0C03934313EA4F
:100CE000CC1317D150F8042B51F8043B9A4215D17C
:100CF000A2EB0C03934313EACC130BD150F8042B53
:100D000051F8043B9A4209D1A2EB0C03934313EA36
:100D1000CC13DBD04FF00000704700BFD01A01BAEF
:100D2000B1FA81F101F0180122FA01F0CB40C1F1D2
:100D30002001DBB2C0B2C01A2CFA01F3D11A9143E0
:100D400011EAC311E6D170475FEA400C08BF91F089
:100D5000000F4FEA8C234FEAC12243EA51514FEA78
:100D60001C5018BF00F5F0404FEA300018BF41F0AA
:100D700000415FEA6C5C00F02980BCF1FF3F08BFD6
:100D800040F080407047130C06BF12044FF0100C67
:100D90004FF0000C130E04BF12020CF1080C130FDD
:100DA00004BF12010CF1040C930F04BF92000CF16C
:100DB000020CD30F04BF52000CF1010C11464FF08E
:100DC0000002A0F11F00A0EB0C00704711F0004FD3
:100DD00008BF704731F000413FF4D5AF0B0C06BFA0
:100DE00009044FF0100C4FF0000C0B0E04BF090269
:100DF0000CF1080C0B0F04BF09010CF1040C8B0F54
:100E000004BF89000CF1020CCB0F04BF49000CF1A8
:100E1000010CCCF12003A0EB0C0022FA03F302FA40
:100E20000CF241EA030100F10100704720F07F4C11
:100E300080EA030023F07F47ACEB070303F57C5304
:100E400000F0004003F1FF032DE980494FEA154B04
:100E500009B44FEA144325EA0B4E24EA03480FF283
:100E6000042606EB132749083E785FEA320203FBAB
:100E70000667C7F5000707FB06F64FEA54374FEA47
:100E8000D64606F1020607FB066CCCF1005C4FEA81
:100E90001C472CEA074C07FB06F40CFB06F504EB99
:100EA00015464FEA961634BF00204FF000404FEA37
:100EB000D13706FB07FC4FEA1C4C0CFB0BF7D21B8F
:100EC00003FB0CF761EB07010CFB0EF7B0EB0740DF
:100ED00072EB17420CFB08F734BFA2EB0742B2EBF0
:100EE000074261EB17414FEA0C444FEA910706FBBA
:100EF00007FC4FEA1C4C0CFB0BF7B0EBC74072EB46
:100F0000573203FB0CF734BFA2EBC742B2EBC74228
:100F100061EB57310CFB0EF7B0EBC70072EB577269
:100F20000CFB08F734BFA2EBC702B2EBC70261EBC0
:100F30005771039F4FEA816141EA921104EBCC049F
:100F40004FEAD1374FEA826206FB07FC42EA901271
:100F50004FEA80604FEA1C4C0CFB0BF7D21B03FBE3
:100F60000CF761EB07010CFB0EF7B0EB074072EBDF
:100F700017420CFB08F734BFA2EB0742B2EB074263
:100F800061EB17414FEA8C554FEA910704EB9C2423
:100F900006FB07FC4FEA1C4C0CFB0BF7B0EBC74001
:100FA00072EB573203FB0CF734BFA2EBC742B2EB34
:100FB000C74261EB57310CFB0EF7B0EBC70072EB89
:100FC00057720CFB08F734BFA2EBC702B2EBC702A3
:100FD00061EB577115EB4C254FEA816141EA9211A3
:100FE0004FEA82624FEAD13742EA901206FB07FCD1
:100FF00044F100044FEA80604FEA1C4C0CFB0BF7F5
:10100000D21B03FB0CF761EB07010CFB0EF7B0EBF7
:10101000074072EB17420CFB08F734BFA2EB074204
:10102000B2EB074261EB174115EB1C154FEA81311A
:1010300041EA92414FEA823242EA90424FEA8030DE
:101040004FEA0C7644F1000448EA03434EEA0B48A9
:101050004FF0000EB2EB080C71EB030724BF6246A1
:1010600039464EEB0E0E4FF0000B0018524149412D
:101070004BEB0B0BB2EB080C71EB03077BF1000B96
:1010800024BF624639464EEB0E0E4FF0000B00189F
:10109000524149414BEB0B0BB2EB080C71EB0307D0
:1010A0007BF1000B24BF624639464EEB0E0E51EA2F
:1010B000020718BF46F0010616EB0E7655F1000246
:1010C00054F1000103D5BDE88901BDE80088BDE801
:1010D0008901BDE80048B619524141EB0101A3F175
:1010E0000103704780807F7E7D7C7B7A797877767C
:1010F00076757473727171706F6E6E6D6C6C6B6AF5
:101100006A69686867666665646463636261616092
:10111000605F5F5E5E5D5D5C5C5B5B5A5A5959580F
:101120005857575656555555545453535252525179
:10113000515050504F4F4F4E4E4D4D4D4C4C4C4BCF
:101140004B4B4A4A4A494949484848474747474616
:101150004646454545444444444343434342424252
:1011600042414141002B26D4770021D01CB54FEAE3
:10117000370703B44FF010004FF010014FF000009C
:101180000FBCBDE810400BF1010BBBF1010F08BF14
:101190005FEA170722BF12F1010211F101014FF0BE
:1011A000004143F1000300F0004043EA00007047B3
:1011B000F9D35708DAE746EA064613F1400F4FEA3B
:1011C00016461FDD13F1200FDFBF16430A4600212C
:1011D00020335B42C8D0C3F1200746EA064602FA34
:1011E00007F74FEA164646EA0706C3F1200722FA38
:1011F00003F201FA07F721FA03F14FF0000342EA84
:101200000702B1E746EA020646EA06464FEA1646F4
:1012100046EA0106BCBF46EA0646360C4FF000031C
:101220004FF000024FF000019EE72DE9C0489346C1
:1012300030B491E8380007C831EA400C48BF34EABE
:10124000430C03D5FFF7F2FDFFF78CFFF0BCBDE8C0
:1012500000882DE9C048934630B491E8380007C8AB
:1012600010F0804F08BF13F0804F03D100F005F855
:10127000FFF778FFF0BCBDE8008820F07F4780EAE8
:10128000030023F07F4C07EB0C03A3F57C5300F025
:101290000040A3F1FE0392F0000F00F0B38095F040
:1012A000000F00F077802DE901494FEA11404FEA25
:1012B000144621EA004800FB06FC24EA064708FB26
:1012C00006F607FB08F800FB07F718EB06484CEB9F
:1012D000164C4FEA124B18EB07484FEA15464CEBF9
:1012E000174022EA0B4E0BFB06FC25EA06470EFBD5
:1012F00006F607FB0EFE0BFB07F71EEB064E4CEB4C
:10130000164C4FF000061EEB074E4CEB174B18EB3C
:101310000B0840F1000018EB0E0B58EB000840F1F1
:1013200000008F1A4FF000013CBFC943661B14BF79
:10133000B5EB040C00213CBFC943F61B4FEA174430
:101340004EEA8E0E27EA04454FEA1C4704FB07626B
:101350002CEA074C05FB07F70CFB05F604FB0CFC1D
:1013600016EB074642EB174216EB0C4642EB1C42CB
:101370001BEB060658EB0202414146EA9E0601D5E8
:10138000BDE80189B619524141EB0101A3F1010306
:10139000BDE801894FEA14454FEA114724EA0546A2
:1013A00021EA074C05FB07F406FB07F70CFB06F1E7
:1013B00005FB0CFC11EB074144EB17444FEA1247C5
:1013C00011EB0C4144EB1C4422EA074C05FB07F2ED
:1013D00006FB07F70CFB06F605FB0CFC16EB0746B5
:1013E00042EB174216EB0C4642EB1C456A1854F1CF
:1013F000000148BF7047B619524141EB0101A3F10A
:101400000103704795F0000F37D04FEA11424FEAC1
:10141000144721EA024624EA074C02FB07F106FBC7
:1014200007F70CFB06F402FB0CFC14EB074441EB42
:1014300017414FEA154714EB0C4441EB1C4125EAD8
:10144000074C02FB07F506FB07F70CFB06F602FB51
:101450000CFC16EB074645EB174516EB0C4645EB27
:101460001C42121951F1000148BF7047B619524190
:1014700041EB0101A3F1010370474FEA14454FEA24
:10148000114724EA054621EA074C05FB07F106FB54
:1014900007F70CFB06F24FF0000605FB0CFC12EB05
:1014A000074241EB174112EB0C4251EB1C4148BF84
:1014B0007047921841EB0101A3F10103704700BF8F
:1014C000FEE77047F0B50A4600210023002400BF64
:1014D0003DE0012505FA01F3156805EA03049C4285
:1014E00034D105684F000326BE40B5430560157929
:1014F0004E00B5400668354305601579012D02D0D0
:101500001579022D16D185684F000326BE40B543DC
:10151000856055794E00B5408668354385604568DD
:1015200001268E40B5434560456896798E40B6B237
:1015300035434560C5684F000326BE40B543C560CE
:10154000D5794E00B540C6683543C560491C1029A1
:10155000BFD3F0BDF0B5002300244D07ED0E02FA15
:1015600005F3CE1000F1200555F826504E07F70E72
:101570000F26BE40B543CF1000F1200646F8275095
:10158000CE1000F1200555F8265045EA0304CE1090
:1015900000F1200545F82640F0BD0183704700BFEB
:1015A000FEE700000CE0002006490860C82001F0BA
:1015B00013FB01200449C1F8A402C82001F00CFB70
:1015C000F1E70000A4824242008042421CB50121A2
:1015D000202000F065F84FF4C060009001208DF8E5
:1015E000040000208DF8060003208DF8050001207E
:1015F0008DF8070069460448FFF764FF4FF4C061A7
:101600000148FFF7CAFF1CBD0014024000BFFEE7FF
:101610007047000070B5002100230F22C4781CB36E
:10162000174C246804F4E064C4F5E064C4F30721B3
:10163000C1F10404E3B20A4144789C40E1B28478E9
:10164000144021430C07210E0E4C05786155047897
:1016500004F01F050124AC4005786D11AD0005F1C3
:10166000E025C5F8004109E0047804F01F050124D5
:10167000AC40054D0678761145F8264070BD000057
:101680000CED00E000E400E080E100E002490143ED
:10169000024A1160704700000000FA050CED00E0FE
:1016A00029B1064A12680243044B1A6004E0034A57
:1016B00012688243014B1A607047000030380240C4
:1016C00029B1064A12680243044B1A6004E0034A37
:1016D00012688243014B1A60704700004438024090
:1016E000F0B5002100220024022500260223324FFB
:1016F0003F6807F00C0121B1042905D0082937D132
:1017000005E02E4F076036E02D4F076033E02A4F8B
:101710003F1F3F68C7F38056274F3F1F3F6807F0C2
:101720003F036EB1264FB7FBF3F7DFF88CC0ACF187
:10173000040CDCF800C0CCF3881C07FB0CF40CE0B4
:101740001E4FB7FBF3F7DFF870C0ACF1040CDCF808
:1017500000C0CCF3881C07FB0CF4174F3F1F3F68F9
:10176000C7F301477F1C7D00B4FBF5F7076002E07B
:10177000124F076000BF00BF0F4F3F6807F0F00136
:101780000909104F7A5C0768D74047600A4F3F68E5
:1017900007F4E051890A0B4F7A5C4768D7408760AD
:1017A000054F3F6807F46041490B064F7A5C476874
:1017B000D740C760F0BD0000083802400024F400A4
:1017C00000127A00A40000200CB5002001900090C7
:1017D0003448006840F480303249086000BF314826
:1017E000006800F4003000900198401C01900098BF
:1017F00018B90198B0F5A04FF1D12A48006800F45B
:10180000003010B10120009001E00020009000980D
:10181000012846D123484030006840F080502149DB
:10182000403108602048006840F440401E4908608C
:101830001C48083000681B490831086008460068E9
:1018400040F4004008600846006840F4A05008607A
:101850001648091F0860081F006840F08070091FC3
:10186000086000BF0F48006800F000700028F9D041
:1018700040F205700E4908600A480830006820F000
:1018800003000849083108600846006840F002007B
:10189000086000BF03480830006800F00C0008280A
:1018A000F8D10CBD003802400070004008544007D9
:1018B000003C0240042808D14FF0E021096941F0C2
:1018C00004014FF0E022116107E04FF0E0210969C7
:1018D00021F004014FF0E0221161704710B501F0D2
:1018E00045FF012801D001F007FC10BD10B51548D7
:1018F000006840F47000134908601348006840F025
:1019000001001149086000200F49083108600E48A5
:1019100000680E4908400C4908600D48091D086020
:10192000081F006820F48020091F08600020064975
:101930000C310860FFF748FF4FF000600149803923
:10194000086010BD88ED00E000380240FFFFF6FEA1
:101950001030002410B540F225511D4800F04AF81F
:1019600010B31B4800F000F9C4B21A48008800F414
:101970000040C8B91748008800F4804060B10A2CC4
:1019800003D000201349088020E01248008840F46A
:1019900000401049088019E00D2C06D10D48008840
:1019A00040F480400B49088010E00A480088C0F3EA
:1019B0000D0009490C5407480088401C054908805F
:1019C00008460088C72801DD0020088010BD0000FF
:1019D000001001402C000020B400002021B18289B9
:1019E00042F40052828104E082894DF6FF731A406E
:1019F0008281704770B50246002400230025002034
:101A000040F66A16B14200D100BFC1F3421501F0A1
:101A10001F03012606FA03F3012D02D196893340F4
:101A200006E0022D02D1168A334001E0968A334047
:101A30000C12012606FA04F41688344013B10CB1D6
:101A4000012000E0002070BDF0B503460024002610
:101A50000025002040F66A17B94200D100BF1846A1
:101A6000C1F3421401F01F06012707FA06F5012C05
:101A700001D10C3004E0022C01D1103000E0143010
:101A80001AB107682F43076002E00768AF43076099
:101A9000F0BD00002DE9FF4705460E460024A14693
:101AA00000BFA046B08900B100BF2C8A24F4405486
:101AB000F08804432C82AC8941F20C608443B088E6
:101AC00031890843718908430443AC81AC8A24F40A
:101AD0004074B0890443AC826846FFF701FE204899
:101AE000854202D01F48854202D1DDF80C9001E00A
:101AF000DDF80890A88900F4004040B109EBC90066
:101B000000EB091031684900B0FBF1F707E009EB81
:101B1000C90000EB091031688900B0FBF1F76420BF
:101B2000B7FBF0F004012009642101FB1078A889BB
:101B300000F4004040B1322000EBC800B0FBF1F0EF
:101B400000F00700044308E0322000EB0810642195
:101B5000B0FBF1F000F00F0004432C81BDE8FF87DB
:101B6000001001400014014001468888C0F30800BD
:101B7000704700BFFEE703B401984100009850EAA7
:101B8000C12018BF04204A0D18BF40F0010040F2E8
:101B9000FF72B2EB515F08BF40F00200012808BF9E
:101BA000052002B0704730380A2801D20120704762
:101BB0000020704700BF704770B504460420FFF74F
:101BC00079FE1248047025464FF47A70454301208F
:101BD0000F4908804FF0E020006940F002004FF00C
:101BE000E021086108464561006940F00100086194
:101BF0000648007800EB4001C1EBC0104FF6FF71C2
:101C000001EAC0000249088070BD000024000020E5
:101C1000260000202DED028B16E00C4890ED000A06
:101C2000DFED0B0A30EE200A80ED000A006802F0BA
:101C300013F841EC180B53EC182B06A0FEF77EFBB3
:101C40004FF47A7000F0C8FFE7E700000C000020B6
:101C50000AD7233C666C6F61745F6E756D20B5C4E6
:101C6000D6B5CEAAA3BA252E34660D0A0000000010
:101C700000BF054A128802F04002002AF9D0C2B221
:101C8000014B9A80704700000010014010B500F031
:101C9000C1FD00F0CFFD002010BD00002DE9F04196
:101CA00005460E461C4807681C480068001D00F0E9
:101CB0002FFE50B91948006890F82C100120884078
:101CC00017490968814316480160681C38B936B164
:101CD00012480168091D134800F058FE1AE07C19EB
:101CE0000E4800684460BC4207D20C480168091DD8
:101CF0000D48006800F030FE0CE008480168091D3E
:101D00000A48006800F028FE09480068844201D2B1
:101D100007480460BDE8F081440000203000002046
:101D2000480000207002002038000020340000200D
:101D30006000002010B5044600F034FE244800681E
:101D4000401C234908602348006840B921480460CA
:101D50000846006801280DD100F0DEF90AE01E48AF
:101D6000006838B91B480068C06AE16A884201D837
:101D70001848046019480068401C18490860084663
:101D80000068206494F82C100120884014490968E8
:101D9000084313490860E16A01EB8101114A02EB33
:101DA0008100211D00F0F2FD00F026FE0A480068C7
:101DB00068B108480068C06AE16A884207D24FF0FB
:101DC000805009490860BFF34F8FBFF36F8F10BD7C
:101DD00040000020300000204C0000205C0000206B
:101DE00048000020BC01002004ED00E010B500F028
:101DF000D9FD10480068D0B90F4800F09DFD0F488C
:101E000000F09AFD0C480E4908600C480D49086026
:101E100000220C210A2001F089F9064908600846D1
:101E2000006820B108A10348006800F099FE00F0A6
:101E3000E3FD10BD74000020840200209802002001
:101E40006C00002070000020546D725100000000F2
:101E500070B523E001F064F81348006808B9012068
:101E600000E00020054601F0EBFDBDB900F09AFD51
:101E70000D48C068C468201D00F04AFD0B4800688A
:101E8000401E0A4908600A480068401E0849086068
:101E900000F0B2FD204600F060F800BF0448006882
:101EA0000028D7D170BD00005C0200204000002057
:101EB0003C00002070B504460D46206C70B1216CCA
:101EC000E0680844E0606168E068884201D3206807
:101ED000E0602846226CE168FEF7C3FA70BD2DE988
:101EE000F04104460F4615464FF00008A66B206CE3
:101EF00040B9206860BB606801F0F2FC80460020B9
:101F0000606025E07DB93946226CA068FEF7A9FA29
:101F1000216CA0680844A060D4E90110884217D35E
:101F20002068A06014E03946226CE068FEF799FA58
:101F3000216CE068401AE0602168E068884203D2C2
:101F4000216C6068401AE060022D01D106B1761E56
:101F5000701CA0634046BDE8F08110B50446206BBC
:101F600000F068FD204600F065FD10BD0146084AFE
:101F7000126812680AB9012200E000220A600A68A9
:101F800022B9034A1268D268106800E00020704746
:101F90006C00002030B54FF49633174800F007046A
:101FA0002CB1C01D20F00700134C041B1B1B024664
:101FB000124C22600024114D6C60D018083820F0BB
:101FC00007000F4C206000240D4D2D686C600C4DF7
:101FD0002D682C601146441A4C60094C24680C6032
:101FE000084D4C682C60084D4C682C604FF0004444
:101FF000064D2C6030BD0000AC02002080000020A7
:1020000088000020900000208C0000209400002018
:1020100000BFFFF71DFF064800680128F9D94FF0FF
:10202000805004490860BFF34F8FBFF36F8FF0E714
:10203000BC01002004ED00E02DE9F04106460D460C
:1020400017469846069C0DB9246000E02760E663B9
:1020500025640121204601F077F984F84C80BDE821
:10206000F0812DE9F05F82460F4690469B460A9E1E
:102070000C9C4FEA8801A522206BFEF737FAA8F1E5
:102080000100216B01EB800929F0070909F0070025
:1020900008B9012000E0002050B900BF502080F3B3
:1020A0001188BFF34F8FBFF36F8F00BF00BFFEE7F4
:1020B000002507E0795D04F134004155785D00B9F1
:1020C00002E06D1C0A2DF5D300BF00213D20015513
:1020D000052E00D30426E662A6640020E064201DDD
:1020E00000F037FC04F1180000F033FC2461C6F165
:1020F0000500A06164620020206584F854005A46FF
:102100005146484600F03AFB20600B9808B10B9806
:102110000460BDE8F09F000010B5002407E004EB68
:1021200084010F4A02EB810000F006FC641C052CC0
:10213000F5D30C4800F000FC0B4800F0FDFB0B4809
:1021400000F0FAFB0A4800F0F7FB0A4800F0F4FB45
:1021500004480949086004480849086010BD0000A7
:10216000BC01002020020020340200204802002090
:102170005C020020700200203400002038000020A3
:1021800010B50146164800E0006803688B42FBD397
:102190000246436813448B4204D143684C6823448D
:1021A000436001460A464B6813440468A34211D1B8
:1021B0000C4C03682468A34208D04B680468646828
:1021C00023444B6003681B680B6005E0054B1B68EC
:1021D0000B6001E003680B60884200D0016010BD15
:1021E00080000020880000202DE9F04104460D46C3
:1021F00016461F464FF0000865602461B5420CD8B2
:10220000F01BA169884202D34FF0010811E0211DA3
:102210000948006800F0A0FB0BE0BE4204D2BD42BA
:1022200002D34FF0010804E0211D0448006800F0CB
:1022300093FB4046BDE8F081700000206C00002058
:1022400070B5054600F0AEFBA86B08B9012400E0AC
:10225000002400F0D1FB204670BD70B5054600F0AB
:10226000A1FBA86BE96B884201D1012400E00024A6
:1022700000F0C2FB204670BDF8B505460F46164873
:102280000068C068C468201D00F042FBE0690128B6
:102290001DD1A06941192B463A462046FFF7A4FFFD
:1022A000A8B1002003462A4601460090204601F0CE
:1022B00075FC064656B900BF502080F31188BFF365
:1022C0004F8FBFF36F8F00BF00BFFEE700BF2046F8
:1022D000616A8847F8BD00006C00002070B586B0C8
:1022E0006AE00398002867DB059C606908B9012053
:1022F00000E0002010B9201D00F00AFB02A800F049
:10230000BDF8054603980A2854D2DFE800F0090515
:102310000731334F0608323400BF00BF00BF00BF93
:102320000498A269811803462A462046FFF75CFFFD
:10233000E8B12046616A8847E069012817D100208A
:1023400000900498A169421800231946204601F024
:1023500025FC064656B900BF502080F31188BFF314
:102360004F8FBFF36F8F00BF00BFFEE700BF22E0BB
:1023700000BF20E000BF0498A061A06908B101205F
:1023800000E0002050B900BF502080F31188BFF357
:102390004F8FBFF36F8F00BF00BFFEE7A0694119E9
:1023A0002B462A462046FFF71FFF04E0204600F098
:1023B00041FB00E000BF00BF00231A4603A9044808
:1023C000006800F0DFFE00288BD106B070BD000071
:1023D00074000020F8B505460C4600F0A1FD6846E3
:1023E00000F04CF80646009820BB44B9B54206D828
:1023F00001F026FB31462846FFF73EFF1CE03CB1CA
:102400000E480068006808B9012000E0002004467A
:10241000A91B22460A48006800F0B8FB01F010FB37
:1024200050B94FF0805007490860BFF34F8FBFF39A
:102430006F8F01E001F004FBF8BD00007000002088
:102440007400002004ED00E00A490968096809B930
:10245000012100E0002121B14FF0FF31064A116057
:1024600006E004490968C968C868034A4168116000
:1024700070470000340000206000002070B5044662
:1024800001F084F9054607480068854204D200F04F
:102490000BF80120206001E0002020600148056069
:1024A000284670BD7C0000202DE9F84332E0244826
:1024B0000068C068056822480068C068C468201DBC
:1024C00000F026FA2046616A8847E069012821D198
:1024D000A0694619AE4207D966602461211D1848DB
:1024E000006800F039FA15E0002003462A4601464C
:1024F0000090204601F052FB074657B900BF50201C
:1025000080F31188BFF34F8FBFF36F8F00BF00BF01
:10251000FEE700BF0A480068006808B9012000E033
:1025200000200028C3D00648D0F800800548006885
:10253000034908600348C0F80080BDE8F883000044
:102540006C000020700000200E480068401C08B994
:10255000012000E0002050B900BF502080F3118816
:10256000BFF34F8FBFF36F8F00BF00BFFEE700BF09
:10257000502080F31188BFF34F8FBFF36F8F00BFE0
:1025800000BFFEE79800002008B500BF6846FFF7CF
:10259000EDFC044620460099FFF71CFFFFF79EFE66
:1025A000F4E770B5044600F0FDF994F9455010E0E9
:1025B000606A08B9012000E0002038B904F1240065
:1025C00001F0F2F918B100F0AFFB00E003E0681E83
:1025D00045B2002DECDC00BFFF2084F8450000F080
:1025E0000BFA00F0DFF994F9445010E0206908B9C3
:1025F000012000E0002048B904F1100001F0D4F9F6
:1026000008B100F091FB681E45B200E001E0002D2A
:10261000ECDC00BFFF2084F8440000F0EDF970BD51
:102620002DE9F04104464FF0000800F079FC4648DF
:10263000006808B9FFF7AEFC444800682040002855
:102640006BD1D4B1083404F00700B0B104F0070036
:10265000C0F10800044404F0070008B9012000E0BC
:10266000002050B900BF502080F31188BFF34F8F76
:10267000BFF36F8F00BF00BFFEE7002C4DD0344882
:102680000068844249D8334E3046056801E02E4642
:102690002D686868A04202D228680028F7D12A482D
:1026A0000068854239D0306800F108082868306039
:1026B0006868001B102819D92F1907F0070008B9FE
:1026C000012000E0002050B900BF502080F31188A5
:1026D000BFF34F8FBFF36F8F00BF00BFFEE7686887
:1026E000001B78606C603846FFF74AFD184968683F
:1026F0000968081A164908600846006816490968FA
:10270000884203D212480068134908600F4968687C
:102710000968084368600020286001F091F908F01A
:10272000070008B9012000E0002050B900BF502088
:1027300080F31188BFF34F8FBFF36F8F00BF00BFCF
:10274000FEE74046BDE8F0818800002094000020AC
:102750008C000020800000209000002006480068C7
:1027600030B10549096801F14C00C96C491C016090
:10277000014800687047000030000020001F4FF043
:1027800080730360001F21F001030360001F054BED
:10279000036014380260001F6FF0020303602038EA
:1027A00070470000492500081CB5044600F0FAF8FF
:1027B0000D48022100233222CDE900100BA10E4862
:1027C00000F0A4FF0D48042100238022CDE9001071
:1027D0000BA10E4800F09AFF0D48006800F02AFA9D
:1027E00000F00AF91CBD0000000000204C454430F8
:1027F0005F7461736B000000A515000804000020E1
:10280000666C6F61745F7461736B0000151C000867
:102810000800002010B54FF44070FEF737FFA820E5
:10282000FFF7CAF94FF4E13000F01CF8FEF7CEFED6
:1028300010BD00001CB50648012100238022CDE90F
:10284000001004A1064800F061FF00F01FFB1CBD52
:102850000800002073746172745F7461736B000010
:10286000A927000810B588B0044601210846FEF7E4
:1028700017FF01211020FEF723FF0722092122481C
:10288000FEF768FE07220A211F48FEF763FE4FF499
:10289000C060069002208DF81C008DF81D000020FD
:1028A0008DF81E0001208DF81F0006A91648FEF7BE
:1028B00009FE02940020ADF80C00ADF80E00ADF852
:1028C0001000ADF814000C20ADF8120002A90F485A
:1028D000FFF7E0F801210D48FFF780F8012240F2F0
:1028E00025510A48FFF7B0F825208DF80400032091
:1028F0008DF805008DF8060001208DF8070001A86D
:10290000FEF788FE08B010BD000002400010014034
:1029100001460A69D1E901309860D1E901035860A4
:102920005068884201D188685060002008611068B2
:10293000401E10601068704700F1080141604FF0C0
:10294000FF31816000F10801C16001610021016077
:10295000704700210161704710B502460B685C1C8E
:102960000CB9106907E002F1080000E04068446813
:1029700024689C42FAD944684C604C68A160886025
:1029800041600A611468641C146010BD42684A60AA
:1029900093688B60936859609160086103685B1C61
:1029A0000360704700BF502080F31188BFF34F8F42
:1029B000BFF36F8F00BF0E480068401C0C490860D1
:1029C00008460068012812D10A480068C0B208B958
:1029D000012000E0002050B900BF502080F3118892
:1029E000BFF34F8FBFF36F8F00BF00BFFEE770478D
:1029F0009800002004ED00E00D48006850B900BFC9
:102A0000502080F31188BFF34F8FBFF36F8F00BF4B
:102A100000BFFEE706480068401E054908600846FA
:102A2000006820B9002080F3118800BF00BF704704
:102A30009800002070B506463546002E3FD0083D70
:102A40002C461F4960680968084008B1012000E071
:102A5000002050B900BF502080F31188BFF34F8F82
:102A6000BFF36F8F00BF00BFFEE7206808B90120E9
:102A700000E0002050B900BF502080F31188BFF360
:102A80004F8FBFF36F8F00BF00BFFEE70C49606838
:102A90000968084098B1206888B9094960680968E0
:102AA0008843606000F03CFA0649606809680844A1
:102AB000044908602046FFF763FB00F0C1FF70BDCA
:102AC000940000208C000020064800684FF47A71C2
:102AD000B0FBF1F0401E4FF0E02148610720086193
:102AE000704700001000002070B5FDF701FC04469F
:102AF000102C16D304F1E02090F8F053154800781C
:102B0000854201DB012000E0002050B900BF5020C9
:102B100080F31188BFF34F8FBFF36F8F00BF00BFEB
:102B2000FEE70D48006800F4E0600C49096888423F
:102B300001D8012000E0002050B900BF502080F3F0
:102B40001188BFF34F8FBFF36F8F00BF00BFFEE749
:102B500070BD00009C0000200CED00E0A0000020F3
:102B6000024600200BE0084B53F8303033B9064BD7
:102B700043F8301003EBC0035A6002E0401C082801
:102B8000F1D300BF704700007C0100202DE9F04127
:102B900005460E4617462C46FFF704FF94F94400FD
:102BA000401C10B9002084F8440094F94500401CF2
:102BB00010B9002084F84500FFF71EFFA06B28B96C
:102BC0003A46314604F1240000F0D0F82046FFF7E1
:102BD000E8FCBDE8F081000070B504460025D4B1E2
:102BE0001248006808B9012000E0002050B900BF79
:102BF000502080F31188BFF34F8FBFF36F8F00BF5A
:102C000000BFFEE700F08CF900212046FFF746F8F0
:102C100000F016FF05463DB94FF0805004490860AA
:102C2000BFF34F8FBFF36F8F70BD000068000020AF
:102C300004ED00E070B50546FFF7B4FE15B9304865
:102C4000006800E028460446201DFFF761FE78B9C1
:102C5000E06A00EB80002B4951F8200040B994F85D
:102C60002C100120884028490968814326480160CA
:102C7000A06A18B104F11800FFF74AFE2348006863
:102C8000401C224908601E480068844209D1211D69
:102C90001F48FFF77BFE1F480068401C1D49086065
:102CA00009E01D480068401E1B4908602046FFF7E8
:102CB00054F9FFF7C9FBFFF79FFE18480068E8B119
:102CC0000F480068844219D11548006808B90120EE
:102CD00000E0002050B900BF502080F31188BFF3FE
:102CE0004F8FBFF36F8F00BF00BFFEE74FF08050E4
:102CF0000C490860BFF34F8FBFF36F8F70BD0000AA
:102D000030000020BC010020480000205C000020B2
:102D10005C0200203C000020400000204C0000200D
:102D20006800002004ED00E00120014908607047C0
:102D30005400002070B504460D4654B900BF502021
:102D400080F31188BFF34F8FBFF36F8F00BF00BFB9
:102D5000FEE70548016818312046FFF7FDFD012117
:102D60002846FEF79BFF70BD3000002070B5054679
:102D70000E46144655B900BF502080F31188BFF3AA
:102D80004F8FBFF36F8F00BF00BFFEE7064801689B
:102D900018312846FFF7FAFD0CB14FF0FF362146F7
:102DA0003046FEF77BFF70BD3000002070B5054651
:102DB0002C46002D4BD02649E06A0968C96A884232
:102DC00045D2A06900F0004028B921480068C06AD7
:102DD000C0F10500A061E16A01EB81011D4A02EB2F
:102DE00081016069884201D1012000E0002050B3D8
:102DF000201DFFF78DFD78B9E06A00EB80001549D2
:102E000051F8200040B994F82C1001208840124954
:102E100009688143104801600D480068C06AE0629B
:102E200094F82C10012088400B49096808430A498E
:102E30000860E16A01EB8101064A02EB8100211D75
:102E4000FFF7A4FD03E002480068C06AE06270BDBD
:102E500030000020BC0100204800002050B900BF15
:102E6000502181F31188BFF34F8FBFF36F8F00BFE5
:102E700000BFFEE703490968016003490968416032
:102E80007047000058000020440000201CB51D4879
:102E900000210B468222CDE900101BA11C4800F046
:102EA00035FC0446012C02D100F04CFE0446012CF6
:102EB00015D100BF502080F31188BFF34F8FBFF3AF
:102EC0006F8F00BF4FF0FF30124908600120124998
:102ED000086000201149086000F070F810E0601CE4
:102EE00008B1012000E0002050B900BF502080F35D
:102EF0001188BFF34F8FBFF36F8F00BF00BFFEE796
:102F00001CBD00006400002049444C450000000046
:102F100011200008600000204C0000204400002028
:102F200002480068401C01490860704768000020A2
:102F30001D48006818B101201C49086032E00020DB
:102F40001A4908601A480068B0FA80F0C0F11F0101
:102F500001EB8100174A52F8200008B1012000E07F
:102F6000002050B900BF502080F31188BFF34F8F6D
:102F7000BFF36F8F00BF00BFFEE701EB81020D4B77
:102F800003EB820042685268426000F10802436825
:102F9000934202D14268526842604268D268064B4E
:102FA0001A6000BF70470000680000205400002035
:102FB00048000020BC010020300000201CB547481C
:102FC00000684749884201D0012000E0002050B944
:102FD00000BF502080F31188BFF34F8FBFF36F8F76
:102FE00000BF00BFFEE73D4800683D49491E8842DA
:102FF00001D0012000E0002050B900BF502080F334
:103000001188BFF34F8FBFF36F8F00BF00BFFEE784
:103010003449084600780190FF200A46107008469F
:10302000007800909DF8000000F0F0009DF800206E
:10303000904201D1012000E0002050B900BF502093
:1030400080F31188BFF34F8FBFF36F8F00BF00BFB6
:10305000FEE79DF8000000F05000234A10700720A2
:10306000224A106009E021480068401E1F4A106093
:103070009DF800004006000E00909DF8000000F052
:1030800080008028EFD0194800680002174A1060BD
:103090001046008800F4E0601060124A0198107039
:1030A0000E482030006840F470000C492031086060
:1030B0000846006840F070400860FFF705FD0020FA
:1030C0000B490860FDF7DCF80A48006840F0404012
:1030D00008490860FDF7C4F800201CBD00ED00E0C1
:1030E00071C20F4100E400E09C000020A00000201D
:1030F0009800002034EF00E010B500BF502080F3AE
:103100001188BFF34F8FBFF36F8F00BF00F044FBF8
:1031100018B14FF080500449086000BF002080F3D0
:10312000118800BF10BD000004ED00E02DE9F84358
:1031300005460E4690460DB1012000E0002050B932
:1031400000BF502080F31188BFF34F8FBFF36F8F04
:1031500000BF00BFFEE70EB9002701E005FB06F740
:1031600007F15000FFF75CFA044644B104F150093E
:1031700043464A46314628460094FEF75DFF204606
:10318000BDE8F8832DE9FF4782B005460E461F468D
:103190004FF0000A2C4654B900BF502080F311882C
:1031A000BFF34F8FBFF36F8F00BF00BFFEE70EB9B5
:1031B000206C08B9012000E0002050B900BF502069
:1031C00080F31188BFF34F8FBFF36F8F00BF00BF35
:1031D000FEE700F0CBFA08B9049808B9012000E036
:1031E000002050B900BF502080F31188BFF34F8FEB
:1031F000BFF36F8F00BF00BFFEE700BFFFF7D2FB3A
:10320000D4F83890B9F1000F3DD0D4F80C80314695
:103210002046FEF74FFEDFB9A9F10100A063206848
:1032200010B9FFF79BFA6060206908B9012000E03F
:10323000002010BB04F1100000F0B6FBE8B14FF025
:10324000805040490860BFF34F8FBFF36F8F14E089
:10325000C4F80C80606A08B9012000E0002060B961
:1032600004F1240000F0A0FB38B14FF08050354944
:103270000860BFF34F8FBFF36F8FFFF7BDFB0120D7
:1032800006B0BDE8F087049818B9FFF7B5FB002039
:10329000F6E7BAF1000F04D16846FFF7DFFD4FF003
:1032A000010AFFF7A9FBFFF73BFEFFF77BFB94F951
:1032B0004400401C10B9002084F8440094F94500F3
:1032C000401C10B9002084F84500FFF795FB04A9C5
:1032D000684600F0D5F940BB2046FEF7B1FFF0B1DB
:1032E000206830B9FFF75EFB6068FFF75FFDFFF70E
:1032F00083FB04F124000499FFF71CFD2046FFF72F
:1033000050F900F09DFB00287FF478AF4FF080501B
:103310000C490860BFF34F8FBFF36F8F6EE72046F5
:10332000FFF73FF900F08CFB68E72046FFF739F91B
:1033300000F086FB2046FEF783FF0028EED0002039
:103340009EE7000004ED00E070B505460E462C46F1
:1033500054B900BF502080F31188BFF34F8FBFF3E3
:103360006F8F00BF00BFFEE7FFF71CFBD4E90F1211
:10337000206801FB020060600020A0632068A0605C
:10338000E06B401E226C216800FB0210E060FF2011
:1033900084F8440084F845009EB9206908B90120EA
:1033A00000E00020A8B904F1100000F0FDFA80B19F
:1033B0004FF0805009490860BFF34F8FBFF36F8F04
:1033C00007E004F11000FFF7B7FA04F12400FFF75B
:1033D000B3FAFFF711FB012070BD000004ED00E01F
:1033E0002DE9FF4383B0064688461D464FF000098D
:1033F000344654B900BF502080F31188BFF34F8F7B
:10340000BFF36F8F00BF00BFFEE7B8F1000F01D11F
:10341000206C08B9012000E0002050B900BF502006
:1034200080F31188BFF34F8FBFF36F8F00BF00BFD2
:10343000FEE7022D02D1E06B012801D1012000E05E
:10344000002050B900BF502080F31188BFF34F8F88
:10345000BFF36F8F00BF00BFFEE700F087F908B928
:10346000059808B9012000E0002050B900BF5020A5
:1034700080F31188BFF34F8FBFF36F8F00BF00BF82
:10348000FEE700BFFFF78EFAA06BE16B884201D325
:10349000022D28D12A4641462046FEF720FD074648
:1034A000606A08B9012000E0002068B904F1240036
:1034B00000F07AFA88B14FF0805032490860BFF3CB
:1034C0004F8FBFF36F8F08E03FB14FF080502D4911
:1034D0000860BFF34F8FBFF36F8FFFF78DFA0120A6
:1034E00007B0BDE8F083059818B9FFF785FA00200A
:1034F000F6E7B9F1000F04D101A8FFF7AFFC4FF0D8
:103500000109FFF779FAFFF70BFDFFF74BFA94F982
:103510004400401C10B9002084F8440094F9450090
:10352000401C10B9002084F84500FFF765FA05A992
:1035300001A800F0A5F8F0B92046FEF78EFEA0B174
:1035400004F110000599FFF7F5FB2046FFF729F875
:1035500000F076FA002895D14FF0805009490860B4
:10356000BFF34F8FBFF36F8F8CE72046FFF719F83B
:1035700000F066FA86E72046FFF713F800F060FADD
:103580000020ADE704ED00E02DE9F05F07468A4634
:1035900090461E463C4654B900BF502080F3118827
:1035A000BFF34F8FBFF36F8F00BF00BFFEE7BAF1CD
:1035B000000F01D1206C08B9012000E0002050B9B3
:1035C00000BF502080F31188BFF34F8FBFF36F8F80
:1035D00000BF00BFFEE7022E02D1E06B012801D13F
:1035E000012000E0002050B900BF502080F3118876
:1035F000BFF34F8FBFF36F8F00BF00BFFEE7FFF732
:1036000073FA00BF5021EFF3118081F31188BFF3EB
:103610004F8FBFF36F8F00BF0546A06BE16B8842F1
:1036200001D3022E23D194F945B0324651462046AB
:10363000FEF755FC0BF1010088B9606A08B901205A
:1036400000E0002080B904F1240000F0ADF958B189
:10365000B8F1000F08D00120C8F8000004E00BF119
:10366000010040B284F845004FF0010901E04FF03D
:10367000000900BF85F3118800BF4846BDE8F09FF0
:1036800070B504460D4654B900BF502080F3118830
:10369000BFF34F8FBFF36F8F00BF00BFFEE755B979
:1036A00000BF502080F31188BFF34F8FBFF36F8F9F
:1036B00000BF00BFFEE7FFF775F9124803682868EE
:1036C000401C08B9002619E00F49206809688842A3
:1036D00004D06068984201D801260FE06068181A8B
:1036E0002968884209D228686168591A401A2860F6
:1036F0002046FFF7B3FB002600E00126FFF77CF928
:10370000304670BD44000020580000202DE9FF4FD6
:1037100085B0804689461746DDE912ABB800FEF752
:103720007FFF064656B15820FEF77AFF04460CB1DB
:10373000266304E03046FFF77DF900E000247CB109
:103740000020CDE900ABCDE902403A46494640466B
:10375000089BFEF786FC2046FEF7ECFA012501E007
:103760004FF0FF35284609B0BDE8F08F05490968DC
:1037700009B9012005E00449096809B9022000E0FF
:10378000002070474C0000206800002001490868B4
:1037900070470000440000202DE9F0414FF0000880
:1037A00044480068002877D143480068451C4248D7
:1037B000056015BB41480068006808B9012000E0B9
:1037C000002050B900BF502080F31188BFF34F8F05
:1037D000BFF36F8F00BF00BFFEE738480768384867
:1037E0000068364908603648076036480068401C63
:1037F00034490860FEF728FE00BF33480068854260
:103800003CD300BF2D480068006808B9012000E0E3
:10381000002020B14FF0FF302B4908602DE02748F1
:103820000068C068C4686668B54202D2264806606F
:1038300023E0201DFFF76CF8A06A18B104F118000E
:10384000FFF766F894F82C10012088401F4909689A
:1038500008431E490860E16A01EB81011C4A02EB42
:103860008100211DFFF792F81A49E06A0968C96AC8
:103870008842C7D34FF00108C4E700BF154800686D
:10388000C06A00EB8000124951F82000012801D9DC
:103890004FF0010805E0FFE70F480068401C0E49A3
:1038A00008600E48006808B14FF001084046BDE8C6
:1038B000F081000068000020440000203400002057
:1038C0003800002058000020600000204800002040
:1038D000BC010020300000205000002054000020D7
:1038E00070B505462C460026002D55D02B480068A3
:1038F000844201D1012000E0002050B900BF5020D7
:1039000080F31188BFF34F8FBFF36F8F00BF00BFED
:10391000FEE7E06C50B900BF502080F31188BFF380
:103920004F8FBFF36F8F00BF00BFFEE7E06C401EFC
:10393000E064A16CE06A88422ED0E06C60BB201D80
:10394000FEF7E6FF78B9E06A00EB8000144951F811
:10395000200040B994F82C100120884011490968D2
:10396000814310480160A06CE062E06AC0F105008C
:10397000A06194F82C10012088400A490968084386
:1039800008490860E16A01EB8101054A02EB810008
:10399000211DFEF7FBFF0126304670BD30000020E0
:1039A000BC0100204800002070B50646F068C468DD
:1039B00054B900BF502080F31188BFF34F8FBFF37D
:1039C0006F8F00BF00BFFEE704F11800FEF7A0FFF5
:1039D00015480068A8B9201DFEF79AFF94F82C102E
:1039E0000120884011490968084310490860E16ACC
:1039F00001EB81010E4A02EB8100211DFEF7C6FF9B
:103A000004E004F118010B48FEF7C0FF0A49E06A20
:103A10000968C96A884204D901250120074908605C
:103A200000E00025284670BD680000204800002006
:103A3000BC0100204802002030000020540000207B
:103A400070B5002400263648006850B900BF5020E9
:103A500080F31188BFF34F8FBFF36F8F00BF00BF9C
:103A6000FEE7FEF79FFF2E480068401E2C490860C5
:103A70000846006800284FD12A48006800284BD02B
:103A800024E02948C068C46804F11800FEF740FF2C
:103A9000201DFEF73DFF94F82C100120884023499B
:103AA0000968084321490860E16A01EB8101204A65
:103AB00002EB8100211DFEF769FF1E49E06A0968DB
:103AC000C96A884202D301201B4908601648006871
:103AD00008B9012000E000200028D2D00CB1FEF788
:103AE000B3FC1648056865B100BFFFF755FE10B17D
:103AF0000120114908606D1E002DF6D100200F49EC
:103B000008600D48006838B1012630070C4908608C
:103B1000BFF34F8FBFF36F8FFEF76EFF304670BD60
:103B200068000020400000204802002048000020DB
:103B3000BC01002030000020540000205000002074
:103B400004ED00E01CB50024FEF750F90E480068B3
:103B500058B10E48022100234FF48272CDE90010C3
:103B60000BA10D48FFF7D2FD044654B900BF502009
:103B700080F31188BFF34F8FBFF36F8F00BF00BF7B
:103B8000FEE720461CBD00007400002078000020E5
:103B9000546D722053766300892500082DE9FE4399
:103BA00004460D4616461F46DDF828804FF00009F2
:103BB00054B900BF502080F31188BFF34F8FBFF37B
:103BC0006F8F00BF00BFFEE71448006810B3009578
:103BD00001960294062D15DAFFF7C8FD022808D1D8
:103BE0000023424669460D480068FFF7F9FB81460D
:103BF00010E000231A46694608480068FFF7F0FB0A
:103C0000814607E000233A46694604480068FFF70A
:103C1000BBFC81464846BDE8FE83000074000020DE
:103C200010B500290AD00878002807D00548784444
:103C3000FDF74AF8002801D0002010BD0248784462
:103C400010BD0000CE010000C60100000808A0F56C
:103C500000114FEA3101704743004FEAD30C4FEA9D
:103C60003C0C43401FBF40070CF1605113F0FE4F66
:103C700070471CF0006F03D100200CF0004170472A
:103C80000CF0004343EA507010B540EACC0000F05D
:103C90000EF800BF000000924FEA0001FFF7D6BF08
:103CA0004FF000414FF00000A1F5002170470EF1E8
:103CB000020E2EF0030E5EF8044B244204D44FEAA9
:103CC0004102B2F17F4F11D84FEA4003B3F17F4F69
:103CD0000CD80ED14FEAD07CB2F17F4F0CEB4C0CDC
:103CE0000CF1020C08BF4CEBD17C04E04FF0080C47
:103CF00001E04FEAD17C0CEB4C0324FA03F404F00E
:103D00000704B4F1040C06D20EEB840CBDE810409D
:103D10004CF0010C6047DFE80CF0070802024FF09E
:103D20000040A0F5800010BD0846420018BFD2F147
:103D3000807288BF00F0004010BD4FF04070E1EE8F
:103D4000100A7047FCF7B5BC02400000000000A05C
:103D50000000000005400000000000C80000000056
:103D60000C4000000000409C0000000019400000D2
:103D70000020BCBE0000000034400000BFC91B8E04
:103D800000000004B5400000504BCFD06607E2CFE2
:103D9000010000006C4100003E8251AADFEEA73412
:103DA00001000000D9420000DCB5A0E23A301F97C4
:103DB000FFFFFFFFB4450000FD25A0C8E9A3C14FE8
:103DC000FFFFFFFFFF3F0000000000800000000039
:103DD000FF3F00000000008000000000183E0008C7
:103DE00000000020B4000000C4010008CC3E000820
:103DF000B40000205C340100E00100081C00000059
:103E000043000000F8FFFFFF0C0000000E00000060
:103E10000F0000002E000000000000000000000065
:103E20000000000000000000007A030A000000000B
:103E3000000000000102030406070809000000005A
:103E40000000000000000000000000000000000072
:103E50000000000000000000000000000000000062
:103E60000000000000000000000000000000000052
:103E70000000000000000000000000000000000042
:103E80000000000000000000000000000000000032
:103E90000000000000000000000000000000000022
:103EA0000000000000000000000000000000000012
:103EB000AAAAAAAA0000000000000000000000005A
:0C3EC000010203040102030406070809C4
:040000050800018965
:00000001FF
