:020000040800F2
:1000000008350120E1020008E9060008A106000801
:10001000E5060008C1050008DB0C00080000000030
:10002000000000000000000000000000290200089D
:10003000C5050008000000007D020008B5090008A1
:10004000FB020008FB020008FB020008FB0200089C
:10005000FB020008FB020008FB020008FB0200088C
:10006000FB020008FB020008FB020008FB0200087C
:10007000FB020008FB020008FB020008FB0200086C
:10008000FB020008FB020008FB020008FB0200085C
:10009000FB020008FB020008FB020008FB0200084C
:1000A000FB020008FB020008FB020008FB0200083C
:1000B000FB0200082D0A0008FB020008FB020008F2
:1000C000FB020008FB020008FB020008FB0200081C
:1000D000FB020008BD0A0008FB020008FB02000842
:1000E000FB020008FB020008FB020008FB020008FC
:1000F000FB020008FB020008FB020008FB020008EC
:10010000FB020008FB020008610A0008FB0200086D
:10011000FB020008FB020008FB020008FB020008CB
:10012000FB020008FB020008FB020008FB020008BB
:10013000FB020008FB020008FB020008FB020008AB
:10014000FB020008FB020008FB020008FB0200089B
:10015000FB020008FB020008FB020008FB0200088B
:10016000FB020008FB020008FB020008FB0200087B
:10017000FB020008FB020008FB020008FB0200086B
:10018000FB020008FB02000800F002F800F03CF857
:100190000AA090E8000C82448344AAF10107DA45E2
:1001A00001D100F031F8AFF2090EBAE80F0013F0F8
:1001B000010F18BFFB1A43F001031847382C000049
:1001C000582C0000103A24BF78C878C1FAD85207DA
:1001D00024BF30C830C144BF04680C6070470000C1
:1001E0000023002400250026103A28BF78C1FBD840
:1001F000520728BF30C148BF0B6070471FB502F0DF
:10020000F3FD1FBD10B510BD00F093F91146FFF7C7
:10021000F5FF00F031FE00F0C5F903B4FFF7F2FF7F
:1002200003BC00F05CFD00002A4B19680868B0E8C8
:10023000F04F80F30988BFF36F8F4FF0000080F319
:10024000118870470000000006480068006880F3CD
:10025000088862B661B6BFF34F8FBFF36F8F00DFC0
:1002600000BF00BF08ED00E0DFF80C00016841F4BA
:1002700070010160704700BF88ED00E0EFF3098076
:10028000BFF36F8F134B1A681EF0100F08BF20EDDD
:10029000108A20E9F04F106008B44FF0500080F34E
:1002A0001188BFF34F8FBFF36F8F01F025FF4FF021
:1002B000000080F3118808BC19680868B0E8F04FA6
:1002C0001EF0100F08BFB0EC108A80F30988BFF34E
:1002D0006F8F70472C000020EFF3058070470000FF
:1002E0000948804709480047FEE7FEE7FEE7FEE7CA
:1002F000FEE7FEE7FEE7FEE7FEE7FEE70448054906
:10030000054A064B70470000C5090008890100082E
:10031000082F012008350120083101200831012073
:10032000704700000FB4044910B503AA029800F00A
:1003300057F810BC5DF814FB24000020032A40F29B
:10034000308010F0030C00F0158011F8013BBCF177
:10035000020F624498BF11F801CB00F8013B38BF8F
:1003600011F8013BA2F1040298BF00F801CB38BF9D
:1003700000F8013B11F0030300F04480083AC0F09C
:10038000088051F8043B083A51F804CBA0E8081063
:10039000F5E7121D5CBF51F8043B40F8043BAFF396
:1003A0000080D20724BF11F8013B11F801CB48BFF0
:1003B00011F8012B24BF00F8013B00F801CB48BF26
:1003C00000F8012B704702F0FF0343EA032242EAE0
:1003D000024200F04BB8704770477047704700000A
:1003E000074B70B50D467B4400F065F8044628467F
:1003F00000F074F810B14FF0FF3070BD204670BDB2
:10040000E309000010B5203AC0F00B80B1E81850A5
:10041000203AA0E81850B1E81850A0E81850BFF4EE
:10042000F5AF5FEA027C24BFB1E81850A0E818508D
:1004300044BF18C918C0BDE810405FEA827C24BFE1
:1004400051F8043B40F8043B08BF7047D20728BF6F
:1004500031F8023B48BF11F8012B28BF20F8023BBE
:1004600048BF00F8012B70474FF000020429C0F08C
:10047000128010F0030C00F03780CCF1040CBCF1BA
:10048000020F18BF00F8012BA8BF20F8022BA1EB28
:100490000C0100F029B85FEAC17C24BF00F8012BF1
:1004A00000F8012B48BF00F8012B704701694A1C76
:1004B00002610878704700B58FB0CDE901310021A5
:1004C000059105497944CDE903101146684600F0CD
:1004D00055F80FB000BD0000E5FFFFFF007B00F006
:1004E000800070474FF0000200B5134694469646D0
:1004F000203922BFA0E80C50A0E80C50B1F1200137
:10050000BFF4F7AF090728BFA0E80C5048BF0CC0E4
:100510005DF804EB890028BF40F8042B08BF704742
:1005200048BF20F8022B11F0804F18BF00F8012BB4
:100530007047754600F040F8AE46050069465346E0
:1005400020F00700854618B020B5FFF7D7FEBDE8BC
:1005500020404FF000064FF000074FF000084FF02A
:10056000000B21F00701AC46ACE8C009ACE8C009BB
:10057000ACE8C009ACE8C0098D4670472DE9F041F0
:1005800006460024D6E90170F5688046304603E04F
:100590004146B847641C3046A8470028F8D1204699
:1005A000BDE8F08110B50446AFF300802046BDE8F9
:1005B0001040FFF732BE000000487047A82E01200F
:1005C00000BFFEE77047F0B50A4600210023002473
:1005D00000BF3DE0012505FA01F3156805EA0304B3
:1005E0009C4234D105684F000326BE40B5430560E8
:1005F00015794E00B5400668354305601579012D23
:1006000002D01579022D16D185684F000326BE4011
:10061000B543856055794E00B540866835438560A1
:10062000456801268E40B5434560456896798E4001
:10063000B6B235434560C5684F000326BE40B5439A
:10064000C560D5794E00B540C6683543C560491CC4
:100650001029BFD3F0BDF0B5002300244D07ED0EE7
:1006600002FA05F3CE1000F1200555F826504E078A
:10067000F70E0F26BE40B543CF1000F1200646F816
:100680002750CE1000F1200555F8265045EA030406
:10069000CE1000F1200545F82640F0BD01837047DB
:1006A00000BFFEE71CB50121202000F065F84FF4E3
:1006B000C060009001208DF8040000208DF8060035
:1006C00003208DF8050001208DF8070069460448D5
:1006D000FFF779FF4FF4C0610148FFF7DFFF1CBD52
:1006E0000014024000BFFEE77047000070B5002113
:1006F00000230F22C4781CB3174C246804F4E06470
:10070000C4F5E064C4F30721C1F10404E3B20A4173
:1007100044789C40E1B28478144021430C07210EB8
:100720000E4C05786155047804F01F050124AC4097
:1007300005786D11AD0005F1E025C5F8004109E02F
:10074000047804F01F050124AC40054D06787611AD
:1007500045F8264070BD00000CED00E000E400E02C
:1007600080E100E002490143024A11607047000045
:100770000000FA050CED00E029B1064A12680243B8
:10078000044B1A6004E0034A12688243014B1A606A
:10079000704700003038024029B1064A126802430F
:1007A000044B1A6004E0034A12688243014B1A604A
:1007B0007047000044380240F0B5002100220024B8
:1007C000022500260223324F3F6807F00C0121B1B9
:1007D000042905D0082937D105E02E4F076036E0FF
:1007E0002D4F076033E02A4F3F1F3F68C7F3805605
:1007F000274F3F1F3F6807F03F036EB1264FB7FBFF
:10080000F3F7DFF88CC0ACF1040CDCF800C0CCF3DB
:10081000881C07FB0CF40CE01E4FB7FBF3F7DFF866
:1008200070C0ACF1040CDCF800C0CCF3881C07FBF2
:100830000CF4174F3F1F3F68C7F301477F1C7D0033
:10084000B4FBF5F7076002E0124F076000BF00BF7E
:100850000F4F3F6807F0F0010909104F7A5C0768F5
:10086000D74047600A4F3F6807F4E051890A0B4FB1
:100870007A5C4768D7408760054F3F6807F460415E
:10088000490B064F7A5C4768D740C760F0BD00004F
:10089000083802400024F40000127A00A000002072
:1008A0000CB50020019000903448006840F480307E
:1008B0003249086000BF3148006800F40030009001
:1008C0000198401C0190009818B90198B0F5A04F0C
:1008D000F1D12A48006800F4003010B101200090E6
:1008E00001E0002000900098012846D123484030C4
:1008F000006840F08050214940310860204800687D
:1009000040F440401E4908601C48083000681B49FC
:10091000083108600846006840F400400860084656
:10092000006840F4A05008601648091F0860081FBE
:10093000006840F08070091F086000BF0F48006821
:1009400000F000700028F9D040F205700E490860F0
:100950000A480830006820F00300084908310860A0
:100960000846006840F00200086000BF03480830F5
:10097000006800F00C000828F8D10CBD00380240D7
:100980000070004008544007003C0240042808D191
:100990004FF0E021096941F004014FF0E0221161BC
:1009A00007E04FF0E021096921F004014FF0E02257
:1009B0001161704710B501F0BDFF012801D001F0B1
:1009C0007FFC10BD10B51548006840F47000134955
:1009D00008601348006840F00100114908600020D9
:1009E0000F49083108600E4800680E4908400C495C
:1009F00008600D48091D0860081F006820F4802069
:100A0000091F0860002006490C310860FFF748FF05
:100A10004FF0006001498039086010BD88ED00E0AA
:100A200000380240FFFFF6FE1030002410B501210F
:100A3000064800F032F8012802D105A0FFF772FC49
:100A40000121024800F026F810BD0000000400401B
:100A500054494D3320CAE4B3F62E2E2E2E0D0A0033
:100A600010B50121064800F018F8012802D105A0B0
:100A7000FFF758FC0121024800F00CF810BD0000FF
:100A8000000C004054494D3520CAE4B3F62E2E2EFA
:100A90002E0D0A00CA430282704730B5024600207C
:100AA00000230024158A05EA0103958905EA01045B
:100AB00013B10CB1012000E0002030BD10B540F2B0
:100AC00025511D4800F04AF810B31B4800F000F90A
:100AD000C4B21A48008800F40040C8B9174800881A
:100AE00000F4804060B10A2C03D000201349088034
:100AF00020E01248008840F400401049088019E0C6
:100B00000D2C06D10D48008840F480400B49088028
:100B100010E00A480088C0F30D0009490C5407484A
:100B20000088401C0549088008460088C72801DD68
:100B30000020088010BD00000010014028000020A7
:100B4000B000002021B1828942F40052828104E089
:100B500082894DF6FF731A408281704770B5024654
:100B6000002400230025002040F66A16B14200D17F
:100B700000BFC1F3421501F01F03012606FA03F37B
:100B8000012D02D19689334006E0022D02D1168A4A
:100B9000334001E0968A33400C12012606FA04F431
:100BA0001688344013B10CB1012000E0002070BD64
:100BB000F0B50346002400260025002040F66A1701
:100BC000B94200D100BF1846C1F3421401F01F061C
:100BD000012707FA06F5012C01D10C3004E0022CA4
:100BE00001D1103000E014301AB107682F430760BC
:100BF00002E00768AF430760F0BD00002DE9FF4742
:100C000005460E460024A14600BFA046B08900B1AB
:100C100000BF2C8A24F44054F08804432C82AC8911
:100C200041F20C608443B0883189084371890843DC
:100C30000443AC81AC8A24F44074B0890443AC8290
:100C40006846FFF7B9FD2048854202D01F4885421B
:100C500002D1DDF80C9001E0DDF80890A88900F4DD
:100C6000004040B109EBC90000EB091031684900B0
:100C7000B0FBF1F707E009EBC90000EB09103168A0
:100C80008900B0FBF1F76420B7FBF0F00401200904
:100C9000642101FB1078A88900F4004040B13220A3
:100CA00000EBC800B0FBF1F000F00700044308E0DF
:100CB000322000EB08106421B0FBF1F000F00F00CF
:100CC00004432C81BDE8FF8700100140001401405F
:100CD00001468888C0F30800704700BFFEE700BFE8
:100CE0007047000070B504460420FFF74FFE12481D
:100CF000047025464FF47A70454301200F4908805F
:100D00004FF0E020006940F002004FF0E021086160
:100D100008464561006940F0010008610648007816
:100D200000EB4001C1EBC0104FF6FF7101EAC000BB
:100D30000249088070BD0000200000202200002031
:100D400070B5044601F0F6FD012811D00C4800886A
:100D5000844206DB0A48008894FBF0F5284601F03F
:100D60001FF80748008894FBF0F100FB114084B2A3
:100D70004FF47A7104FB01F000F004F870BD00003C
:100D80002200002070B5034600224FF0E02675696E
:100D90000D4E367803FB06F44FF0E026B16910E003
:100DA0004FF0E026B06988420BD0884202D20E1A7A
:100DB000324402E02E1A0E4432440146A24200D3CD
:100DC00000E0EDE700BF70BD2000002000BF054A35
:100DD000128802F04002002AF9D0C2B2014B9A8078
:100DE00070470000001001402AE016480068401CCF
:100DF0001449086008460068052817D112A0FFF7BB
:100E000091FA00BF502080F31188BFF34F8FBFF3DA
:100E10006F8F00BF41F28830FFF792FF0FA0FFF7FE
:100E200081FA002080F3118800BF00BF10480068DD
:100E3000C0431049C1F8A4024FF47A7000F0B0FF2B
:100E4000D3E7000008000020B9D8B1D5D6D0B6CF7E
:100E50002E2E2E2E2E2E0D0A00000000B4F2BFAA58
:100E6000D6D0B6CF2E2E2E2E2E2E0D0A000000002C
:100E7000A48242420080424210B500F0AFFD00F073
:100E8000BDFD002010BD00002DE9F04105460E46D5
:100E90001C4807681C480068001D00F01DFE50B982
:100EA0001948006890F82C100120884017490968FB
:100EB000814316480160681C38B936B11248016890
:100EC000091D134800F046FE1AE07C190E48006820
:100ED0004460BC4207D20C480168091D0D480068F7
:100EE00000F01EFE0CE008480168091D0A48006871
:100EF00000F016FE09480068844201D207480460E9
:100F0000BDE8F081400000202C00002044000020BB
:100F10006C02002034000020300000205C00002023
:100F200010B5044600F022FE24480068401C234906
:100F300008602348006840B92148046008460068FA
:100F400001280DD100F0DEF90AE01E48006838B92A
:100F50001B480068C06AE16A884201D818480460EA
:100F600019480068401C1849086008460068206459
:100F700094F82C100120884014490968084313494B
:100F80000860E16A01EB8101114A02EB8100211D39
:100F900000F0E0FD00F014FE0A48006868B108485F
:100FA0000068C06AE16A884207D24FF08050094960
:100FB0000860BFF34F8FBFF36F8F10BD3C00002060
:100FC0002C00002048000020580000204400002091
:100FD000B801002004ED00E010B500F0C7FD104896
:100FE0000068D0B90F4800F08BFD0F4800F088FD75
:100FF0000C480E4908600C480D49086000220C217D
:101000000A2001F077F9064908600846006820B117
:1010100008A10348006800F087FE00F0D1FD10BD74
:101020007000002080020020940200206800002050
:101030006C000020546D72510000000070B523E078
:1010400001F052F81348006808B9012000E00020C0
:10105000054601F0D9FDBDB900F088FD0D48C06816
:10106000C468201D00F038FD0B480068401E0A4986
:1010700008600A480068401E0849086000F0A0FDAA
:10108000204600F060F800BF044800680028D7D16F
:1010900070BD0000580200203C00002038000020F5
:1010A00070B504460D46206C70B1216CE0680844B0
:1010B000E0606168E068884201D32068E06028460B
:1010C000226CE168FFF73AF970BD2DE9F041044662
:1010D0000F4615464FF00008A66B206C40B92068FB
:1010E00060BB606801F0E0FC80460020606025E0A5
:1010F0007DB93946226CA068FFF720F9216CA06801
:101100000844A060D4E90110884217D32068A06089
:1011100014E03946226CE068FFF710F9216CE068B2
:10112000401AE0602168E068884203D2216C606860
:10113000401AE060022D01D106B1761E701CA0633A
:101140004046BDE8F08110B50446206B00F056FD26
:10115000204600F053FD10BD0146084A126812688F
:101160000AB9012200E000220A600A6822B9034A93
:101170001268D268106800E0002070476800002004
:1011800030B54FF49633174800F007042CB1C01D5A
:1011900020F00700134C041B1B1B0246124C22605C
:1011A0000024114D6C60D018083820F007000F4C57
:1011B000206000240D4D2D686C600C4D2D682C6056
:1011C0001146441A4C60094C24680C60084D4C6868
:1011D0002C60084D4C682C604FF00044064D2C608C
:1011E00030BD0000A80200207C0000208400002008
:1011F0008C000020880000209000002000BFFFF736
:101200001DFF064800680128F9D94FF080500449B5
:101210000860BFF34F8FBFF36F8FF0E7B801002076
:1012200004ED00E02DE9F04106460D4617469846CC
:10123000069C0DB9246000E02760E6632564012167
:10124000204601F065F984F84C80BDE8F0812DE975
:10125000F05F82460F4690469B460A9E0C9C4FEAE2
:101260008801A522206BFFF7AEF8A8F10100216BE1
:1012700001EB800929F0070909F0070008B90120EE
:1012800000E0002050B900BF502080F31188BFF368
:101290004F8FBFF36F8F00BF00BFFEE7002507E051
:1012A000795D04F134004155785D00B902E06D1CB0
:1012B0000A2DF5D300BF00213D200155052E00D396
:1012C0000426E662A6640020E064201D00F025FCF0
:1012D00004F1180000F021FC2461C6F10500A061B2
:1012E00064620020206584F854005A4651464846FE
:1012F00000F03AFB20600B9808B10B980460BDE841
:10130000F09F000010B5002407E004EB84010F4AB1
:1013100002EB810000F0F4FB641C052CF5D30C48B3
:1013200000F0EEFB0B4800F0EBFB0B4800F0E8FB95
:101330000A4800F0E5FB0A4800F0E2FB04480949CE
:10134000086004480849086010BD0000B80100208A
:101350001C0200203002002044020020580200201D
:101360006C020020300000203400002010B501463F
:10137000164800E0006803688B42FBD302464368CE
:1013800013448B4204D143684C68234443600146B4
:101390000A464B6813440468A34211D10C4C0368FD
:1013A0002468A34208D04B680468646823444B60F7
:1013B00003681B680B6005E0054B1B680B6001E0D0
:1013C00003680B60884200D0016010BD7C000020E3
:1013D000840000202DE9F04104460D4616461F46C4
:1013E0004FF0000865602461B5420CD8F01BA1697C
:1013F000884202D34FF0010811E0211D094800681E
:1014000000F08EFB0BE0BE4204D2BD4202D34FF08F
:10141000010804E0211D0448006800F081FB4046FB
:10142000BDE8F0816C0000206800002070B5054622
:1014300000F09CFBA86B08B9012400E0002400F038
:10144000BFFB204670BD70B5054600F08FFBA86B52
:10145000E96B884201D1012400E0002400F0B0FBD8
:10146000204670BDF8B505460F4616480068C068AE
:10147000C468201D00F030FBE06901281DD1A0697F
:1014800041192B463A462046FFF7A4FFA8B1002099
:1014900003462A4601460090204601F063FC0646BA
:1014A00056B900BF502080F31188BFF34F8FBFF3B0
:1014B0006F8F00BF00BFFEE700BF2046616A88470C
:1014C000F8BD00006800002070B586B06AE003989F
:1014D000002867DB059C606908B9012000E0002056
:1014E00010B9201D00F0F8FA02A800F0BDF805467A
:1014F00003980A2854D2DFE800F009050731334F7A
:101500000608323400BF00BF00BF00BF0498A269C4
:10151000811803462A462046FFF75CFFE8B12046C3
:10152000616A8847E069012817D10020009004987B
:10153000A169421800231946204601F013FC064613
:1015400056B900BF502080F31188BFF34F8FBFF30F
:101550006F8F00BF00BFFEE700BF22E000BF20E0AA
:1015600000BF0498A061A06908B1012000E000203C
:1015700050B900BF502080F31188BFF34F8FBFF3E5
:101580006F8F00BF00BFFEE7A06941192B462A46B6
:101590002046FFF71FFF04E0204600F02FFB00E08D
:1015A00000BF00BF00231A4603A90448006800F0EA
:1015B000CDFE00288BD106B070BD00007000002069
:1015C000F8B505460C4600F08FFD684600F04CF873
:1015D0000646009820BB44B9B54206D801F014FB7A
:1015E00031462846FFF73EFF1CE03CB10E4800683C
:1015F000006808B9012000E000200446A91B22462B
:101600000A48006800F0A6FB01F0FEFA50B94FF05E
:10161000805007490860BFF34F8FBFF36F8F01E021
:1016200001F0F2FAF8BD00006C000020700000200C
:1016300004ED00E00A490968096809B9012100E0E0
:10164000002121B14FF0FF31064A116006E0044944
:101650000968C968C868034A41681160704700009A
:10166000300000205C00002070B5044601F072F9E3
:10167000054607480068854204D200F00BF80120B7
:10168000206001E00020206001480560284670BD10
:10169000780000202DE9F84332E024480068C06853
:1016A000056822480068C068C468201D00F014FA6C
:1016B0002046616A8847E069012821D1A06946195E
:1016C000AE4207D966602461211D1848006800F009
:1016D00027FA15E0002003462A46014600902046DE
:1016E00001F040FB074657B900BF502080F3118836
:1016F000BFF34F8FBFF36F8F00BF00BFFEE700BF88
:101700000A480068006808B9012000E000200028AD
:10171000C3D00648D0F80080054800680349086037
:101720000348C0F80080BDE8F8830000680000208E
:101730006C0000200E480068401C08B9012000E041
:10174000002050B900BF502080F31188BFF34F8FA5
:10175000BFF36F8F00BF00BFFEE700BF502080F3D4
:101760001188BFF34F8FBFF36F8F00BF00BFFEE73D
:101770009400002008B500BF6846FFF7EDFC044662
:1017800020460099FFF71CFFFFF79EFEF4E770B5B7
:10179000044600F0EBF994F9455010E0606A08B98E
:1017A000012000E0002038B904F1240001F0E0F944
:1017B00018B100F09DFB00E003E0681E45B2002D6B
:1017C000ECDC00BFFF2084F8450000F0F9F900F0E0
:1017D000CDF994F9445010E0206908B9012000E0E7
:1017E000002048B904F1100001F0C2F908B100F07E
:1017F0007FFB681E45B200E001E0002DECDC00BF7D
:10180000FF2084F8440000F0DBF970BD2DE9F041C1
:1018100004464FF0000800F067FC4648006808B92D
:10182000FFF7AEFC44480068204000286BD1D4B1DB
:10183000083404F00700B0B104F00700C0F108005C
:10184000044404F0070008B9012000E0002050B96A
:1018500000BF502080F31188BFF34F8FBFF36F8F0D
:1018600000BF00BFFEE7002C4DD034480068844222
:1018700049D8334E3046056801E02E462D68686829
:10188000A04202D228680028F7D12A480068854281
:1018900039D0306800F10808286830606868001B9B
:1018A000102819D92F1907F0070008B9012000E006
:1018B000002050B900BF502080F31188BFF34F8F34
:1018C000BFF36F8F00BF00BFFEE76868001B786042
:1018D0006C603846FFF74AFD184968680968081ABD
:1018E000164908600846006816490968884203D20C
:1018F00012480068134908600F496868096808437E
:1019000068600020286001F07FF908F0070008B93E
:10191000012000E0002050B900BF502080F3118862
:10192000BFF34F8FBFF36F8F00BF00BFFEE740468E
:10193000BDE8F08184000020900000208800002095
:101940007C0000208C0000200648006830B105496A
:10195000096801F14C00C96C491C0160014800682C
:10196000704700002C000020001F4FF080730360C0
:10197000001F21F001030360001F054B03601438B2
:101980000260001F6FF00203036020387047000000
:10199000351700081CB5044600F0E8F80848022195
:1019A0000023CA01CDE9001006A10A4800F092FF09
:1019B0000948006800F022FA00F002F91CBD00009E
:1019C00000000020696E746572727570745F7461D6
:1019D000736B0000E90D00080400002010B54FF4FF
:1019E0004070FEF7BFFEA820FFF77CF94FF4E1300E
:1019F00000F01CF8FEF756FE10BD00001CB50648AE
:101A0000012100230A02CDE9001004A1064800F0DC
:101A100061FF00F01FFB1CBD0400002073746172A5
:101A2000745F7461736B00009519000810B588B07D
:101A3000044601210846FEF79FFE01211020FEF713
:101A4000ABFE072209212248FEF705FE07220A21E4
:101A50001F48FEF700FE4FF4C060069002208DF88C
:101A60001C008DF81D0000208DF81E0001208DF84F
:101A70001F0006A91648FEF7A6FD02940020ADF847
:101A80000C00ADF80E00ADF81000ADF814000C20FD
:101A9000ADF8120002A90F48FFF7B0F801210D4878
:101AA000FFF750F8012240F225510A48FFF780F86D
:101AB00025208DF8040003208DF805008DF8060020
:101AC00001208DF8070001A8FEF710FE08B010BD38
:101AD000000002400010014001460A69D1E90130CE
:101AE0009860D1E9010358605068884201D1886844
:101AF0005060002008611068401E10601068704738
:101B000000F1080141604FF0FF31816000F10801F0
:101B1000C1600161002101607047002101617047CF
:101B200010B502460B685C1C0CB9106907E002F1A5
:101B3000080000E04068446824689C42FAD9446880
:101B40004C604C68A160886041600A611468641C44
:101B5000146010BD42684A6093688B609368596056
:101B60009160086103685B1C0360704700BF5020F0
:101B700080F31188BFF34F8FBFF36F8F00BF0E4804
:101B80000068401C0C49086008460068012812D112
:101B90000A480068C0B208B9012000E0002050B92E
:101BA00000BF502080F31188BFF34F8FBFF36F8FBA
:101BB00000BF00BFFEE770479400002004ED00E086
:101BC0000D48006850B900BF502080F31188BFF362
:101BD0004F8FBFF36F8F00BF00BFFEE7064800685E
:101BE000401E054908600846006820B9002080F3BF
:101BF000118800BF00BF70479400002070B50646F2
:101C00003546002E3FD0083D2C461F4960680968C4
:101C1000084008B1012000E0002050B900BF50206A
:101C200080F31188BFF34F8FBFF36F8F00BF00BFEA
:101C3000FEE7206808B9012000E0002050B900BF8D
:101C4000502080F31188BFF34F8FBFF36F8F00BF19
:101C500000BFFEE70C4960680968084098B1206839
:101C600088B90949606809688843606000F03CFAF7
:101C70000649606809680844044908602046FFF77F
:101C800075FB00F0C1FF70BD9000002088000020AF
:101C9000064800684FF47A71B0FBF1F0401E4FF037
:101CA000E021486107200861704700000C00002017
:101CB00070B5FEF711FB0446102C16D304F1E0209A
:101CC00090F8F05315480078854201DB012000E0D0
:101CD000002050B900BF502080F31188BFF34F8F10
:101CE000BFF36F8F00BF00BFFEE70D48006800F430
:101CF000E0600C490968884201D8012000E000201A
:101D000050B900BF502080F31188BFF34F8FBFF34D
:101D10006F8F00BF00BFFEE770BD0000980000207D
:101D20000CED00E09C000020024600200BE0084B78
:101D300053F8303033B9064B43F8301003EBC0038F
:101D40005A6002E0401C0828F1D300BF7047000031
:101D5000780100202DE9F04105460E4617462C4635
:101D6000FFF704FF94F94400401C10B9002084F8E8
:101D7000440094F94500401C10B9002084F8450047
:101D8000FFF71EFFA06B28B93A46314604F1240044
:101D900000F0D0F82046FFF7FAFCBDE8F081000023
:101DA00070B504460025D4B11248006808B9012076
:101DB00000E0002050B900BF502080F31188BFF32D
:101DC0004F8FBFF36F8F00BF00BFFEE700F08CF9AD
:101DD00000212046FFF758F800F016FF05463DB9F0
:101DE0004FF0805004490860BFF34F8FBFF36F8FEF
:101DF00070BD00006400002004ED00E070B50546F1
:101E0000FFF7B4FE15B93048006800E028460446E4
:101E1000201DFFF761FE78B9E06A00EB80002B49D6
:101E200051F8200040B994F82C100120884028492E
:101E30000968814326480160A06A18B104F11800BE
:101E4000FFF74AFE23480068401C224908601E48EC
:101E50000068844209D1211D1F48FFF77BFE1F48FF
:101E60000068401C1D49086009E01D480068401ECC
:101E70001B4908602046FFF766F9FFF7DBFBFFF719
:101E80009FFE18480068E8B10F480068844219D1E5
:101E90001548006808B9012000E0002050B900BFD3
:101EA000502080F31188BFF34F8FBFF36F8F00BFB7
:101EB00000BFFEE74FF080500C490860BFF34F8F22
:101EC000BFF36F8F70BD00002C000020B801002010
:101ED0004400002058000020580200203800002054
:101EE0003C000020480000206400002004ED00E0D9
:101EF00001200149086070475000002070B5044679
:101F00000D4654B900BF502080F31188BFF34F8FA6
:101F1000BFF36F8F00BF00BFFEE7054801681831AF
:101F20002046FFF7FDFD01212846FEF7ADFF70BDFD
:101F30002C00002070B505460E46144655B900BF6A
:101F4000502080F31188BFF34F8FBFF36F8F00BF16
:101F500000BFFEE70648016818312846FFF7FAFD82
:101F60000CB14FF0FF3621463046FEF78DFF70BDB5
:101F70002C00002070B505462C46002D4BD026497C
:101F8000E06A0968C96A884245D2A06900F0004049
:101F900028B921480068C06AC0F10500A061E16A63
:101FA00001EB81011D4A02EB81016069884201D188
:101FB000012000E0002050B3201DFFF78DFD78B90F
:101FC000E06A00EB8000154951F8200040B994F810
:101FD0002C10012088401249096881431048016093
:101FE0000D480068C06AE06294F82C100120884017
:101FF0000B49096808430A490860E16A01EB81015D
:10200000064A02EB8100211DFFF7A4FD03E0024810
:102010000068C06AE06270BD2C000020B80100209A
:102020004400002050B900BF502181F31188BFF354
:102030004F8FBFF36F8F00BF00BFFEE703490968F2
:1020400001600349096841607047000054000020A6
:10205000400000201CB51D4800210B468222CDE91E
:1020600000101BA11C4800F035FC0446012C02D1D5
:1020700000F04CFE0446012C15D100BF502080F327
:102080001188BFF34F8FBFF36F8F00BF4FF0FF304A
:1020900012490860012012490860002011490860B7
:1020A00000F070F810E0601C08B1012000E0002092
:1020B00050B900BF502080F31188BFF34F8FBFF39A
:1020C0006F8F00BF00BFFEE71CBD00006000002056
:1020D00049444C4500000000FD1100085C00002050
:1020E000480000204000002002480068401C0149D0
:1020F00008607047640000201D48006818B1012086
:102100001C49086032E000201A4908601A4800683B
:10211000B0FA80F0C0F11F0101EB8100174A52F8BC
:10212000200008B1012000E0002050B900BF50207D
:1021300080F31188BFF34F8FBFF36F8F00BF00BFD5
:10214000FEE701EB81020D4B03EB8200426852680F
:10215000426000F108024368934202D1426852682B
:1021600042604268D268064B1A6000BF70470000A8
:10217000640000205000002044000020B80100202E
:102180002C0000201CB5474800684749884201D010
:10219000012000E0002050B900BF502080F31188DA
:1021A000BFF34F8FBFF36F8F00BF00BFFEE73D4807
:1021B00000683D49491E884201D0012000E000200E
:1021C00050B900BF502080F31188BFF34F8FBFF389
:1021D0006F8F00BF00BFFEE73449084600780190CA
:1021E000FF200A4610700846007800909DF8000015
:1021F00000F0F0009DF80020904201D1012000E0A5
:10220000002050B900BF502080F31188BFF34F8FDA
:10221000BFF36F8F00BF00BFFEE79DF8000000F026
:102220005000234A10700720224A106009E021481C
:102230000068401E1F4A10609DF800004006000E16
:1022400000909DF8000000F080008028EFD0194831
:1022500000680002174A10601046008800F4E06031
:102260001060124A019810700E482030006840F447
:1022700070000C49203108600846006840F070404A
:102280000860FFF705FD00200B490860FDF7ECFF33
:102290000A48006840F0404008490860FDF7D4FF54
:1022A00000201CBD00ED00E071C20F4100E400E021
:1022B000980000209C0000209400002034EF00E0F3
:1022C00010B500BF502080F31188BFF34F8FBFF3CC
:1022D0006F8F00BF00F044FB18B14FF080500449ED
:1022E000086000BF002080F3118800BF10BD00000F
:1022F00004ED00E02DE9F84305460E4690460DB189
:10230000012000E0002050B900BF502080F3118868
:10231000BFF34F8FBFF36F8F00BF00BFFEE70EB953
:10232000002701E005FB06F707F15000FFF76EFA02
:10233000044644B104F1500943464A463146284612
:102340000094FEF76FFF2046BDE8F8832DE9FF47B4
:1023500082B005460E461F464FF0000A2C4654B97F
:1023600000BF502080F31188BFF34F8FBFF36F8FF2
:1023700000BF00BFFEE70EB9206C08B9012000E0E5
:10238000002050B900BF502080F31188BFF34F8F59
:10239000BFF36F8F00BF00BFFEE700F0CBFA08B9B4
:1023A000049808B9012000E0002050B900BF502077
:1023B00080F31188BFF34F8FBFF36F8F00BF00BF53
:1023C000FEE700BFFFF7D2FBD4F83890B9F1000F59
:1023D0003DD0D4F80C8031462046FEF761FEDFB9CF
:1023E000A9F10100A063206810B9FFF7ADFA6060A1
:1023F000206908B9012000E0002010BB04F11000A2
:1024000000F0B6FBE8B14FF0805040490860BFF3E0
:102410004F8FBFF36F8F14E0C4F80C80606A08B967
:10242000012000E0002060B904F1240000F0A0FBCE
:1024300038B14FF0805035490860BFF34F8FBFF37C
:102440006F8FFFF7BDFB012006B0BDE8F087049851
:1024500018B9FFF7B5FB0020F6E7BAF1000F04D179
:102460006846FFF7DFFD4FF0010AFFF7A9FBFFF712
:102470003BFEFFF77BFB94F94400401C10B90020A1
:1024800084F8440094F94500401C10B9002084F8F9
:102490004500FFF795FB04A9684600F0D5F940BB5D
:1024A0002046FEF7C3FFF0B1206830B9FFF75EFBAE
:1024B0006068FFF75FFDFFF783FB04F124000499D8
:1024C000FFF71CFD2046FFF762F900F09DFB002896
:1024D0007FF478AF4FF080500C490860BFF34F8F06
:1024E000BFF36F8F6EE72046FFF751F900F08CFBCA
:1024F00068E72046FFF74BF900F086FB2046FEF721
:1025000095FF0028EED000209EE7000004ED00E0DB
:1025100070B505460E462C4654B900BF502080F3D6
:102520001188BFF34F8FBFF36F8F00BF00BFFEE76F
:10253000FFF71CFBD4E90F12206801FB020060606A
:102540000020A0632068A060E06B401E226C216820
:1025500000FB0210E060FF2084F8440084F845008E
:102560009EB9206908B9012000E00020A8B904F153
:10257000100000F0FDFA80B14FF08050094908606A
:10258000BFF34F8FBFF36F8F07E004F11000FFF729
:10259000B7FA04F12400FFF7B3FAFFF711FB0120AB
:1025A00070BD000004ED00E02DE9FF4383B0064656
:1025B00088461D464FF00009344654B900BF5020EC
:1025C00080F31188BFF34F8FBFF36F8F00BF00BF41
:1025D000FEE7B8F1000F01D1206C08B9012000E03E
:1025E000002050B900BF502080F31188BFF34F8FF7
:1025F000BFF36F8F00BF00BFFEE7022D02D1E06B7B
:10260000012801D1012000E0002050B900BF502076
:1026100080F31188BFF34F8FBFF36F8F00BF00BFF0
:10262000FEE700F087F908B9059808B9012000E035
:10263000002050B900BF502080F31188BFF34F8FA6
:10264000BFF36F8F00BF00BFFEE700BFFFF78EFA3A
:10265000A06BE16B884201D3022D28D12A46414666
:102660002046FEF732FD0746606A08B9012000E007
:10267000002068B904F1240000F07AFA88B14FF024
:10268000805032490860BFF34F8FBFF36F8F08E06F
:102690003FB14FF080502D490860BFF34F8FBFF31B
:1026A0006F8FFFF78DFA012007B0BDE8F083059822
:1026B00018B9FFF785FA0020F6E7B9F1000F04D149
:1026C00001A8FFF7AFFC4FF00109FFF779FAFFF718
:1026D0000BFDFFF74BFA94F94400401C10B90020A1
:1026E00084F8440094F94500401C10B9002084F897
:1026F0004500FFF765FA05A901A800F0A5F8F0B9B3
:102700002046FEF7A0FEA0B104F110000599FFF7E6
:10271000F5FB2046FFF73BF800F076FA002895D14C
:102720004FF0805009490860BFF34F8FBFF36F8FA0
:102730008CE72046FFF72BF800F066FA86E7204684
:10274000FFF725F800F060FA0020ADE704ED00E0A7
:102750002DE9F05F07468A4690461E463C4654B92E
:1027600000BF502080F31188BFF34F8FBFF36F8FEE
:1027700000BF00BFFEE7BAF1000F01D1206C08B91D
:10278000012000E0002050B900BF502080F31188E4
:10279000BFF34F8FBFF36F8F00BF00BFFEE7022E66
:1027A00002D1E06B012801D1012000E0002050B9E6
:1027B00000BF502080F31188BFF34F8FBFF36F8F9E
:1027C00000BF00BFFEE7FFF773FA00BF5021EFF331
:1027D000118081F31188BFF34F8FBFF36F8F00BF5C
:1027E0000546A06BE16B884201D3022E23D194F9F8
:1027F00045B0324651462046FEF767FC0BF101001A
:1028000088B9606A08B9012000E0002080B904F1AD
:10281000240000F0ADF958B1B8F1000F08D0012044
:10282000C8F8000004E00BF1010040B284F8450054
:102830004FF0010901E04FF0000900BF85F3118856
:1028400000BF4846BDE8F09F70B504460D4654B938
:1028500000BF502080F31188BFF34F8FBFF36F8FFD
:1028600000BF00BFFEE755B900BF502080F31188BC
:10287000BFF34F8FBFF36F8F00BF00BFFEE7FFF7BF
:1028800075F9124803682868401C08B9002619E049
:102890000F4920680968884204D06068984201D8CE
:1028A00001260FE06068181A2968884209D2286852
:1028B0006168591A401A28602046FFF7B3FB0026CA
:1028C00000E00126FFF77CF9304670BD4000002093
:1028D000540000202DE9FF4F85B0804689461746F9
:1028E000DDE912ABB800FEF791FF064656B158205D
:1028F000FEF78CFF04460CB1266304E03046FFF778
:102900007DF900E000247CB10020CDE900ABCDE9E9
:1029100002403A4649464046089BFEF798FC20464E
:10292000FEF7FEFA012501E04FF0FF35284609B019
:10293000BDE8F08F0549096809B9012005E004499F
:10294000096809B9022000E0002070474800002013
:102950006400002001490868704700004000002022
:102960002DE9F0414FF0000844480068002877D175
:1029700043480068451C4248056015BB4148006853
:10298000006808B9012000E0002050B900BF5020C5
:1029900080F31188BFF34F8FBFF36F8F00BF00BF6D
:1029A000FEE7384807683848006836490860364806
:1029B000076036480068401C34490860FEF73AFE5C
:1029C00000BF3348006885423CD300BF2D480068F3
:1029D000006808B9012000E0002020B14FF0FF306E
:1029E0002B4908602DE027480068C068C468666805
:1029F000B54202D22648066023E0201DFFF76CF89E
:102A0000A06A18B104F11800FFF766F894F82C10CA
:102A1000012088401F49096808431E490860E16A8F
:102A200001EB81011C4A02EB8100211DFFF792F8A6
:102A30001A49E06A0968C96A8842C7D34FF0010899
:102A4000C4E700BF15480068C06A00EB8000124967
:102A500051F82000012801D94FF0010805E0FFE7F7
:102A60000F480068401C0E4908600E48006808B115
:102A70004FF001084046BDE8F081000064000020EE
:102A800040000020300000203400002054000020CE
:102A90005C00002044000020B80100202C00002031
:102AA0004C0000205000002070B505462C46002642
:102AB000002D55D02B480068844201D1012000E050
:102AC000002050B900BF502080F31188BFF34F8F12
:102AD000BFF36F8F00BF00BFFEE7E06C50B900BFCF
:102AE000502080F31188BFF34F8FBFF36F8F00BF6B
:102AF00000BFFEE7E06C401EE064A16CE06A884223
:102B00002ED0E06C60BB201DFEF7E6FF78B9E06ACE
:102B100000EB8000144951F8200040B994F82C10C3
:102B20000120884011490968814310480160A06C68
:102B3000E062E06AC0F10500A06194F82C10012069
:102B400088400A490968084308490860E16A01EBBE
:102B50008101054A02EB8100211DFEF7FBFF0126E2
:102B6000304670BD2C000020B80100204400002039
:102B700070B50646F068C46854B900BF502080F3B1
:102B80001188BFF34F8FBFF36F8F00BF00BFFEE709
:102B900004F11800FEF7A0FF15480068A8B9201D31
:102BA000FEF79AFF94F82C1001208840114909681B
:102BB000084310490860E16A01EB81010E4A02EB0B
:102BC0008100211DFEF7C6FF04E004F118010B4847
:102BD000FEF7C0FF0A49E06A0968C96A884204D959
:102BE000012501200749086000E00025284670BD46
:102BF0006400002044000020B801002044020020AE
:102C00002C0000205000002070B50024002636481B
:102C1000006850B900BF502080F31188BFF34F8F78
:102C2000BFF36F8F00BF00BFFEE7FEF79FFF2E4888
:102C30000068401E2C4908600846006800284FD1F3
:102C40002A48006800284BD024E02948C068C4689E
:102C500004F11800FEF740FF201DFEF73DFF94F839
:102C60002C10012088402349096808432149086045
:102C7000E16A01EB8101204A02EB8100211DFEF790
:102C800069FF1E49E06A0968C96A884202D30120C7
:102C90001B4908601648006808B9012000E00020C0
:102CA0000028D2D00CB1FEF7C5FC1648056865B106
:102CB00000BFFFF755FE10B10120114908606D1EDD
:102CC000002DF6D100200F4908600D48006838B18A
:102CD000012630070C490860BFF34F8FBFF36F8F99
:102CE000FEF76EFF304670BD640000203C000020FF
:102CF0004402002044000020B80100202C000020E5
:102D0000500000204C00002004ED00E01CB5002421
:102D1000FEF762F90E48006858B10E480221002300
:102D20004FF48272CDE900100BA10D48FFF7D2FDE0
:102D3000044654B900BF502080F31188BFF34F8F71
:102D4000BFF36F8F00BF00BFFEE720461CBD000031
:102D50007000002074000020546D722053766300D0
:102D6000751700082DE9FE4304460D4616461F461A
:102D7000DDF828804FF0000954B900BF502080F3DF
:102D80001188BFF34F8FBFF36F8F00BF00BFFEE707
:102D90001448006810B3009501960294062D15DAC8
:102DA000FFF7C8FD022808D10023424669460D48B6
:102DB0000068FFF7F9FB814610E000231A466946D8
:102DC00008480068FFF7F0FB814607E000233A4619
:102DD000694604480068FFF7BBFC81464846BDE8E9
:102DE000FE830000700000204FF04070E1EE100AFA
:102DF00070470000142E000800000020B000000002
:102E0000C4010008C42E0008B0000020583401009E
:102E1000E0010008000000000000000000000000C9
:102E2000007A030A00000000000000000102030411
:102E30000607080900000000000000000000000074
:102E40000000000000000000000000000000000082
:102E50000000000000000000000000000000000072
:102E60000000000000000000000000000000000062
:102E70000000000000000000000000000000000052
:102E80000000000000000000000000000000000042
:102E90000000000000000000000000000000000032
:102EA0000000000000000000AAAAAAAA000000007A
:102EB00000000000000000000102030401020304FE
:042EC00006070809F0
:040000050800018965
:00000001FF
